:0300000002256A6C
:0C256A00787FE4F6D8FD7581210225B1D0
:0C000300000000000000000000000000F1
:0B2A5C00EF1FAC0670011E4C70F6224C
:10002A00AB07AA06EB1BAE0270011A4E60097FAA43
:08003A007E05122A5C80ED2214
:10229600907120E04480F07F057E00122A5CE4FF06
:1022A600FE12002A75A75575AC589071327450F01D
:1022B6009071307403F0907136742FF07F18EF240C
:1022C60066FDE434718D82F583E4F00FEFB433EEEE
:1022D600904011E4935407FF90711CE054F84FF0BE
:1022E600904017E493547FFF90711DE054804FF0A7
:1022F600904010E493FF5401C43333335480FE906E
:102306007123E0547F4EF0EFC313543F4440FFA3C4
:10231600E054804FF0904012E493FF540FFE90710A
:1023260046E054F04EF0EFC4540FFF90714FE05466
:10233600F04FF0904013E493543FFF907140E05407
:10234600C04FF0904014E493907126F0904015E44D
:0E23560093907128F0904016E49390712AF055
:012364002256
:0715B600446330428C000089
:1020D700C390630EE0947090630DE0941740030281
:1020E700218DC3906310E0947090630FE0941740C4
:1020F7000302218DE4FFFE7D807CBF906330E0F812
:10210700A3E0F9A3E0FAA3E0FB12004CE4FBFA79A1
:10211700A87842120246E4FBFA798078BF12004C95
:102127009063341206E4906330E0FCA3E0FDA3E083
:10213700FEA3E0FFE4FBFAF9783F12004C9063300E
:102147001206E4906334E0FCA3E0FDA3E0FEA3E005
:10215700FF9063151206E47F007E007DA07C40128D
:1021670018CDE4FBFA7970784212013D1202E39030
:10217700630DEEF0A3EFF090630DE0FFA3E0906333
:102187000FCFF0A3EFF0C390630EE0947090630D50
:10219700E09417500FC3906310E0947090630FE0C2
:1021A7009417401490630D7417F0A37470F0906344
:0921B7000F7417F0A37470F022FC
:101CAC0075D9DD12229675D95590715EE054FEF00F
:101CBC0075D9BB1228DE1229B712297012242612EC
:101CCC0027B312295012292F1228701229C9906398
:101CDC00477417F0A37470F090630B7417F0A3742F
:101CEC0070F09063077417F0A37470F0906309742C
:101CFC0017F0A37470F0C294E490630DF0A3F0900D
:101D0C00630FF0A3F0D208906347E0FEA3E0FFC39B
:101D1C0090630EE09F90630DE09E4014906347E04B
:101D2C00FEA3E0FF906310E09F90630FE09E5028AD
:101D3C00121A33300302C203300905C2091220D72C
:101D4C0090630DE0FEA3E0FF1229EC90630FE0FE20
:101D5C00A3E0FF1229FC80AF90630DE0FFA3E0909D
:101D6C006303CFF0A3EFF090630FE0FFA3E0906369
:101D7C0005CFF0A3EFF0C208121A33121FE112289C
:101D8C00321228ACC29430040C7B017A6279821234
:101D9C001386120C259062FFE0FEA3E0FF122725AC
:101DAC00906303EEF0A3EFF0906301E0FEA3E0FF7D
:101DBC00122725906305EEF0A3EFF012290B80B8E3
:1015BD004263071770426309177042630B1770423D
:1015CD0062FF177042630317704263011770426325
:0315DD000517707F
:102426007812E24401F278567407F278277417F2AC
:1024360018746FF27833E4F218F27819E24401F274
:102446007811E24401F27817E24401F27812E2448C
:1024560001F27814E24401F27818E24401F278D3EA
:10246600E254CFF2E24410F2E254FCF2E24401F20A
:1024760090718AE4F090718C740AF07812E244024A
:10248600F278577407F278297417F218746FF27895
:1024960037E4F218F27819E24402F27811E24402C3
:1024A600F27817E24402F27812E24402F27814E279
:1024B6004402F27818E24402F278D3E254F3F2E2EC
:0A24C6004404F290718B7409F022B7
:1029EC00AC06EC7833F218EFF27817E24401F222DD
:1029FC00AC06EC7837F218EFF27817E24402F222C8
:0C2A44007818E230E0037F01227F0022BE
:0C2A50007818E230E1037F01227F0022B1
:0D2A2A007818E24401F290718C740AF022D9
:0E000F007818E254FEF290718CE4F0D2962242
:0D2A37007818E24402F290718B7409F022CD
:0E2A1C007818E254FDF290718BE4F0D295220E
:10272500906347E0FCA3E0FD12077DE47B707A1718
:10273500F9F81205E1D3906308E09F906307E09EE6
:102745005005E0FEA3E0FFD390630AE09F90630984
:10275500E09E5005E0FEA3E0FFD390630CE09F9060
:0B276500630BE09E5005E0FEA3E0FFC8
:012770002246
:1015E0004162F800C1014162FA004162F9004162C2
:1015F000D500602062D6FFFF000000000000000060
:1016000000000000000000000000000000000000DA
:101610000000000000004162C7004162C800C10034
:101620004162C9004162CA004462CB00000000422E
:0916300062CF00004262D1FFFF0D
:1028DE0078F2E24403F278E3E244C0F278F0E25494
:1028EE00FDF208E254FDF208E2440CF278D0E25414
:0D28FE00F7F208E254F7F208E244C0F222BB
:1029B70043AA04D2AF786AE24479F27F017E00022B
:0229C700002AE4
:1025F60043AA04D2AFEF24FE602014603314604671
:1026060024037056907123E054D8F0E0441DF090F6
:1026160071227407F07599178040907123E054F881
:10262600F0E0441EF09071227407F0759919802A23
:10263600907123E054F8F0E0441EF0907122740784
:10264600F07599188014907123E054D8F0E0441E78
:10265600F09071227407F075990B7869E24448F29C
:012666002251
:10298B009062D3E0FEA3E0FF7C007D0C12077DE498
:08299B007B0AFAF9F80205E1DC
:101FE1009063111206F0000000009062F8E06402B4
:051FF10070030220D680
:101FF6009062C7E004F0E0C3946450030220D6E484
:01200600F0E9
:0F20070012298B9063111206E49062F8E0703D8D
:102016007FEA7E0BFDFC906311E0F8A3E0F9A3E0F4
:10202600FAA3E0FBC312068150089062C8E004F0F0
:102036008005E49062C8F09062C8E0C3940AE44068
:0D20460007F09062F804F0229062F8F0229A
:082053009062F8E06401707B6B
:10205B0020000FD20090633F1206F0000000001228
:10206B002A0CE47F307E75FDFC90633FE0F8A3E023
:0D207B00F9A3E0FAA3E0FBC3120681404E7A
:10208800E47FEA7E0BFDFC906311E0F8A3E0F9A37E
:10209800E0FAA3E0FB12068150089062C9E004F060
:1020A8008005E49062C9F09062C9E0C3940A4018C0
:1020B800E4F09062F87402F01229A390633F1206CC
:0E20C800F000000000C200229062F87401F0E7
:0120D60022E7
:1028AC009062F8E07008300728C2070207D19062E6
:1028BC00F8E0B4010B906307740BF0A374B8F0222A
:1028CC009062F8E0B4020A9063077405F0A374DC1C
:0228DC00F022E8
:102832009062FDE0FEA3E0FF9062FAE0701AD3EF2F
:102842009420EE940E5004D2018002C20190630BD8
:102852007417F0A37470F022C3EF94C8EE940E4084
:0D28620002C20190630B7405F0A374DCF05A
:01286F002246
:0300420002174F53
:10174F00C0E0C0F0C083C082C0D075D000C000C060
:10175F0001C002C003C004C005C006C007786BE219
:06176F0020E1030218B2A4
:10177500AF93EF75F010A4FFE594C4540FFDEF4D42
:10178500FF90631FE5F0F0A3EFF0E24402F29062F0
:09179500F9E06402600302187619
:10179E009062CAE0C39414400302182FE004F0E0F4
:1017AE00C39402406D9062CFE0FEA3E0FFD390633E
:1017BE0020E09F90631FE09E400CE0FFA3E090624C
:1017CE00CFCFF0A3EFF09062D1E0FEA3E0FFC39085
:1017DE006320E09F90631FE09E500CE0FFA3E0901B
:1017EE0062D1CFF0A3EFF09062CBE0F8A3E0F9A3C3
:1017FE00E0FAA3E0FB90631FE0FEA3E0FFE4FCFD34
:10180E00EB2FFFEA3EFEED39FDEC38FC9062CB1279
:10181E0006E49062CAE0C3941450067869E244016B
:10182E00F29062CAE0C39414407AA3E0FCA3E0FDF8
:10183E00A3E0FEA3E0FF78041206929062F6EEF0AB
:10184E00A3EFF09062F97403F09062CAE4F0906234
:10185E00CFF0A3F09062D174FFF0A3F09062CB12A0
:06186E0006F0000000007E
:10187400803C9062F9E0B4050C90631FE0FFA3E0A4
:101884009062FB80249062F9E0B4070C90631FE03F
:10189400FFA3E09062D380119062F9E0B4090F9045
:0E18A400631FE0FFA3E09062FDCFF0A3EFF022
:1018B200D007D006D005D004D003D002D001D0008A
:0B18C200D0D0D082D083D0F0D0E03234
:1016390041633E00C109426338000042633A000039
:0516490042633C0000BB
:1029700043A820D2AF75D10178957401F21874760E
:0B298000F2789174A0F21874FDF222AE
:03001E000221C0FC
:1021C000C0E0C083C082C0D075D000C0007891E26A
:1021D00020E70302228BE24480F290633EE004F0A9
:1021E000E0C3940D4004E4F0D209906283E0C3940C
:0621F000FF5003E004F0C3
:1021F60030042D906269E06027906339E004F07046
:1022060006906338E004F0C3906339E0946090630D
:1022160038E094EA4011E4F0A3F0906269F0800798
:07222600906338E4F0A3F01F
:10222D0030012F90633DE004F0700690633CE004B4
:10223D00F090633AE4F0A3F0C390633DE0943290E4
:10224D00633CE094004037E4F0A3F09062FA04F0B0
:10225D00802C90633BE004F0700690633AE004F04C
:10226D0090633CE4F0A3F0C390633BE09440906333
:0E227D003AE0941F4008E4F0A3F09062FAF0FB
:0B228B00D000D0D0D082D083D0E03251
:07164E0044633F00000000AF
:1027B300E5B154CF42B1789CE254E3F2E24414F21F
:1027C300E254FCF2E24401F208E24480F2E24420E3
:1027D300F278A1743BF2187460F2789EE4F208F286
:1027E300789CE2541FF2E244A0F253A8BFD2AF2276
:102A0C00789CE2541FF2E244C0F243A840D2AF22B9
:1029A300789CE2541FF2E244A0F2789EE4F208F22B
:0429B30053A8BF2244
:030021000226D0E4
:1026D000C0E0C0F0C083C082C0D075D000C000C0D0
:1026E00004C005C006C007789DE230E723E24480BD
:1026F000F290633FE0FCA3E0FDA3E0FEA3E0240131
:10270000FFE43EFEE43DFDE43CFC90633F1206E442
:10271000D007D006D005D004D000D0D0D082D0834E
:05272000D0F0D0E03212
:09165500C102C10342632E000032
:1029500043A901D2AF75D104907105E4F0907104E0
:102960007424F090710174A0F090710074FDF02255
:0300240002106364
:10106300C0E0C0F0C083C082C0D075D000C000C053
:1010730001C002C003C004C005C006C007907101CF
:10108300E020E70302136BE04480F090632BE0045D
:10109300F0700690632AE004F090632DE004F07092
:1010A3000690632CE004F090632FE004F070069048
:1010B300632EE004F0C390632DE0940D90632CE065
:1010C30094004006E4F0A3F0D203C390632BE094B2
:0F10D3000D90632AE094004006E4F0A3F0D202EF
:1010E200208358906328E004F0E0C3941E5003026A
:1010F2001252906321E06417600302125290632936
:10110200E09406401EE094145019906322E0FCA380
:10111200E0FDA3E0FEA3E04401FFEC90632212068F
:10112200E4800A906329E0C394014001E0906327C0
:101132007401F0906326E4F0021252906328E0D327
:1011420094005003021233E0D3943240179063228A
:101152001206F000000000906321E4F09063260480
:10116200F0021218906326E0603E906328E0C39478
:10117200024035E094075030A3E0C394064029E0D2
:1011820094145024906322E0FCA3E0FDA3E0FEA3AC
:10119200E04401FFEC9063221206E4906321E00434
:1011A200F0E0641860708042906326E060559063BE
:1011B20028E0C39407404CE094145047A3E0C39442
:1011C200014040E09406503B906322E0FCA3E0FD26
:1011D200A3E0FEA3E054FEFFEC9063221206E4902B
:1011E2006321E004F0E06418602CA3E0FCA3E0FDBE
:1011F200A3E0FEA3E0FF78011206A5906322120687
:10120200E480139063221206F00000000090632134
:10121200E4F0906326F0906328E4F0A3F090632159
:10122200E0B418269063277401F0906326E4F080FE
:1012320019906326E070139063221206F0000000FA
:1012420000906321E4F0906326F0906329E004F0BB
:10125200906327E06023906321E4F0906327F0A37A
:10126200F0A3F0906322E0FCA3E0FDA3E0FEA3E084
:09127200FF9062BD1206E4D205F2
:10127B00C390632FE0941490632EE094005003020C
:10128B00136BE4F0A3F030080302136B90630DE0D3
:10129B00FEA3E0FFD3906304E09F906303E09E40C6
:1012AB001090630EE004F0702B90630DE004F0805F
:1012BB002390630DE0FEA3E0FFC3906304E09F90D7
:1012CB006303E09E500E90630EE024FFF090630DDD
:1012DB00E034FFF090630FE0FEA3E0FFD3906306D2
:1012EB00E09F906305E09E4010906310E004F07067
:1012FB002B90630FE004F0802390630FE0FEA3E0DC
:10130B00FFC3906306E09F906305E09E500E9063D1
:10131B0010E024FFF090630FE034FFF090630DE0DA
:10132B00FEA3E0FF1229EC90630FE0FEA3E0FF1297
:10133B0029FCD390630EE0940090630DE094005071
:10134B000512000F8003122A2AD3906310E0940039
:10135B0090630FE094005005122A1C8003122A3769
:10136B00D007D006D005D004D003D002D001D000D6
:0B137B00D0D0D082D083D0F0D0E03280
:07165E004263471770C10A47
:101A33009062FBE0FFA3E0906311CFF0A3EFF030DF
:101A43000A03021B71D3906312E094EA906311E0DE
:101A53009401500AE4906347F0A3F0021B64D3900F
:101A63006312E094DD906311E094045030E0FEA330
:101A7300E0FFEF2416FFEE34FEFEE434FFFDE43412
:101A8300FFFCE47BE07A2EF9F8120556E47B0AFAB0
:101A9300F9F81205E1E47BDD7A04021B4BD3906372
:101AA30012E094EE906311E09408501DE0FEA3E071
:101AB300FF7C5D7DC012077DE47B0AFAF9F812050D
:101AC300E1E47BEE7A08021B4BD3906312E094129D
:101AD300906311E0940B501CE0FEA3E0FF7C177DA4
:101AE3007012077DE47B02FAF9F81205E1E47B1238
:101AF3007A0B8054D3906312E094BC906311E0940A
:101B03000C501CE0FEA3E0FF7C8C7DA012077DE45B
:101B13007B0AFAF9F81205E1E47BBC7A0C8029D33D
:101B2300906312E09491906311E0940F5029E0FECA
:101B3300A3E0FF7CBB7D8012077DE47B0AFAF9F802
:101B43001205E1E47B917A0FF9F81205E1906347FE
:101B5300EEF0A3EFF0800A9063477417F0A374705C
:101B6300F0906347E07002A3E07014D20A22C3909E
:0F1B73006312E094DD906311E094044002C20A13
:011B82002240
:101665004162690044627EFFFFFFFF4662C10000E0
:1016750000000000C104C1054462BD000000005423
:10168500626A0821222324042526272802292A2BD9
:101695002C012D2E2F3060286295140102030418A9
:1016A5000506070810090A0B0C150D0E0F1005117C
:1016B500121314081516171806191A1B1C091D1ED6
:1016C5001F205362823200000000000F120000004C
:0C16D500040001FF1DCCFF004162680012
:101DCC00200503021ED5C2059062BDE0FCA3E0FD18
:0F1DDC00A3E0FEA3E0FFEC4D4E4F7003021ED2BA
:101DEB009062BDA3A3A3E0906311F0906269E060E1
:101DFB0051906311E0540FFBBB01219062BDE0FCDD
:101E0B00A3E0FDA3E0FEA3E0FF780412069290622C
:101E1B007E1206E4906311EBF0021EC2906311E098
:101E2B0064146003021EC29062BDE0FCA3E0FDA33C
:101E3B00E0FEA3E0FF780812069290627E1206E4A1
:101E4B0080759062C6E064C570679062C5E0B401AE
:101E5B00309062BDE0FCA3E0FDA3E0FEA3E0FF78C1
:101E6B00041206929062C1E0F8A3E0F9A3E0FAA392
:101E7B00E0FBC31206817009906311E0540FF080F0
:101E8B00369062C5E0B402279062BDE0FCA3E0FD92
:101E9B00A3E0FEA3E0FF78081206929062C1E0F87F
:101EAB00A3E0F9A3E0FAA3E0FBC31206816008806C
:101EBB000090631174FFF09062BD1206F0000000F9
:071ECB0000906311E0FF220B
:061ED2007FFF227FFF22CA
:02266700A907C1
:10266900E4FFFEEB64017026EE75F005A4246AF51B
:1026790082E43462F583E0B5010EEE75F005A42419
:102689006AF582E43462802A0EEEB404DB22EB643C
:10269900027033FEEE75F005A42495F582E43462E8
:1026A900F583E0B5011BEE75F005A42495F582E4E8
:1026B9003462F583E5822DF582E43583F583E0FF05
:0626C900220EEEB408CE63
:0126CF0022E8
:08236500906312EFF0A3EDF00C
:10236D00E4A3F0A3F0906269E060529062C1E0FCDA
:10237D00A3E0FDA3E0FEA3E0FF90627EE0F8A3E002
:10238D00F9A3E0FAA3E0FBC3120681701B9062C6AD
:10239D00E064C570139062C5E0B401028050906294
:1023AD00C5E06402706D8059906312E0FFB41402B1
:1023BD008054906312E0FF6401705880369062C1C2
:1023CD00E0FCA3E0FDA3E0FEA3E0FF90627EE0F859
:1023DD00A3E0F9A3E0FAA3E0FBC3120681703490E9
:1023ED0062C6E064C5702C9062C5E0B4010C9063C8
:1023FD0012E0FFA3E0FD7B0180119062C5E0B40205
:10240D0012906312E0FFA3E0FD7B0212266790633A
:08241D0014EFF0906314E0FFDE
:012425002294
:100C2500E4906311F0906293E0F47003021062E0C7
:100C3500FFA3E0FD122365906311EFF090629374BA
:050C4500FFF0E4A3F044
:100C4A00906269E06401706A906311E0FF906268E3
:100C5A00E06F7054EF64036005EF642F706E90626A
:100C6A00C674C5F090627EE0FCA3E0FDA3E0FEA39B
:100C7A00E0FF9062C11206E4906311E09062C5B48D
:100C8A0003057402F080037401F0E4FF1229DB7B90
:100C9A00017A6279C19063167406F0E4FF12277133
:100CAA009062697402F08024906311E0906268F0A7
:100CBA00801A906269E0B40213906311E0FF640441
:0C0CCA006004EFB43006E4906269F02290
:100CD6009062C6E064C56003021062906269E060DB
:100CE6002690627EE0FCA3E0FDA3E0FEA3E0FF9079
:100CF60062C1E0F8A3E0F9A3E0FAA3E0FBC31206A1
:100D0600817004906269F0906311E01207510D60E2
:100D1600010D60040D6F050D6F080D72090D930B23
:100D26000DB40D0DD50F0DF6110DF6140DFC150DA8
:100D3600FC180E02190E2F1B0E631D0E991F0ECFE7
:100D4600210F12230F55250F55280F6A290FD12B76
:100D560010342D10343000001062122A44EF700651
:100D6600122A50EF600302104002104E906300E01A
:100D7600242CF09062FFE03401F0D3A3E09470904D
:100D860062FFE09417500302106202105B9063004A
:100D9600E02496F09062FFE03400F0D3A3E0947074
:100DA6009062FFE09417500302106202105B90639A
:100DB60002E0242CF0906301E03401F0D3A3E09428
:100DC60070906301E09417500302106202105B906A
:100DD6006302E02496F0906301E03400F0D3A3E0D0
:100DE6009470906301E09417500302106202105B46
:100DF6009062FF020F62906301020F62C39063006C
:100E0600E0942C9062FFE09401404BA3E024D4F0E0
:100E16009062FFE034FEF0C3A3E0942C9062FFE002
:100E260094014003021062805FC3906300E09496D1
:100E36009062FFE09400401EA3E0246AF09062FFF7
:100E4600E034FFF0C3A3E094969062FFE094004084
:100E5600030210628032E49062FF02104AC390637C
:100E660002E0942C906301E094014020A3E024D496
:100E7600F0906301E034FEF0C3A3E0942C9063018C
:100E8600E094014003021062E402104AE490630118
:100E960002104AC3906302E09496906301E09400C6
:100EA6004020A3E0246AF0906301E034FFF0C3A37E
:100EB600E09496906301E094004003021062E4021D
:100EC600104AE490630102104A906300E0242CF07B
:100ED6009062FFE03401F0D3A3E094709062FFE0EB
:100EE600941740077417F0A37470F0906302E0241F
:100EF6002CF0906301E03401F0D3A3E0947090638A
:100F060001E09417500302106202105B906300E048
:100F16002496F09062FFE03400F0D3A3E094709042
:100F260062FFE0941740077417F0A37470F09063A3
:100F360002E02496F0906301E03400F0D3A3E0943D
:100F460070906301E09417500302106202105B90E8
:100F560062FF740BF0A374B8F0906301740BF0A3F6
:100F660074B8F022C3906300E0942C9062FFE09482
:100F760001401CA3E024D4F09062FFE034FEF0C3ED
:100F8600A3E0942C9062FFE09401500AE48004E40C
:100F96009062FFF0A3F0C3906302E0942C9063018B
:100FA600E094014020A3E024D4F0906301E034FEF5
:100FB600F0C3A3E0942C906301E094014003021077
:100FC60062E402104AE49063018079C3906300E012
:100FD60094969062FFE09400401CA3E0246AF0908F
:100FE60062FFE034FFF0C3A3E094969062FFE094C2
:100FF60000500AE48004E49062FFF0A3F0C390631B
:1010060002E09496906301E09400401CA3E0246AF9
:10101600F0906301E034FFF0C3A3E094969063017F
:10102600E094005037E4801CE49063018016122A95
:1010360044EF7006122A50EF600EE49062FFF0A3B0
:10104600F0906301F0A3F0229062FF7417F0A3748E
:0C10560070F09063017417F0A37470F048
:01106200226B
:1028700078C0E24408F278C2E2543FF278D0E244F1
:1028800002F278D2E254F3F2209104D2048002C220
:10289000043004177B017A6279C19063157406F0E5
:0C28A000E4FF1227F39062697401F0223B
:0416E100416346001B
:10138600E4906311F07FFFA374FFF0906343EBF0EA
:10139600A3EAF0A3E9F09000011204ACFE12049354
:1013A600FDEEC39D50030215B5906343E0FBA3E039
:1013B600FAA3E0F9900001E412051E90000E120750
:1013C60021120777EFF460089063467423F08009D2
:1013D600906346E06003E014F0906343E0FBA3E013
:1013E600FAA3E0F99000031204AC6F6015900005B3
:1013F6001204AC600D900004E412051E9000030276
:1014060015B19000051204ACFE9000041204ACC3A2
:101416009E5013906343E0FBA3E0FAA3E0F990002B
:101426000474010204D9906343E0FBA3E0FAA3E04D
:10143600F99000021204AC6F6077EFF47030900000
:10144600061204ACFE9000081204ACC39E400C9039
:1014560063117404F09000020214EE906343E0FB03
:10146600A3E0FAA3E0F990000A74010215A09063C4
:1014760043E0FBA3E0FAA3E0F9900008740112052B
:101486001E90000C1204AC6F9063436017E0FBA340
:10149600E0FAA3E0F9900009740112051E90000C11
:1014A600EF0215A0E0FBA3E0FAA3E0F990000980A3
:1014B6004EEFF47052906343E0FBA3E0FAA3E0F929
:1014C6009000091204ACD3940050030215A39000B7
:1014D6000B1204ACFE90000A1204ACD39E4012908C
:1014E60063117401F090000C1204AC906312F0804A
:1014F6007E906343E0FBA3E0FAA3E0F990000A7450
:10150600011204D90215A3906343E0FBA3E0FAA3FA
:10151600E0F99000081204ACC394FF50089000084C
:1015260074011204D99000061204ACFE9000081251
:1015360004ACB506089063117402F0802D906343E5
:10154600E0FBA3E0FAA3E0F99000071204ACFE90DA
:1015560000081204AC6E70459063117403F090009D
:10156600061204AC90000812051E906312EFF0906C
:101576006343E0FBA3E0FAA3E0F9900009E4120557
:101586001E90000C74FF12051E906312E09000116D
:1015960012051E906311E090001212051E9063431F
:0F15A600E0FBA3E0FAA3E0F9900002EF12051EAC
:0115B5002213
:1029DB0075AF3F8FAF75AEB975A402E5A530E1FBBE
:0129EB0022C9
:10277100906313EBF0A3EAF0A3E9F075AF3F8FAFDD
:10278100906316E0C394014028E5A530E0FB906317
:1027910013E0FBA3E475F001120540A9F0FA12045D
:1027A10093F5A675AEB975A401906316E014F08097
:0227B100CF2235
:1027F300906312EBF0A3EAF0A3E9F0906315E060B5
:102803002DAE070FEE2400FDE4343F8D82F583E403
:1028130093FE906312E0FBA3E475F001120540A957
:0F282300F0FAEE12050C906315E014F080CD2250
:1029C90078D2E254CFF2E24410F2907188E4F0C276
:0229D900922248
:10290B00C390630EE0945890630DE094025012C391
:10291B00906310E0945890630FE094025003D292AE
:04292B0022C2922210
:0416E50041634A0112
:10292F0043A902D2AF75D10890710D7401F0907167
:10293F000C745DF090710974A0F090710874FDF043
:01294F002265
:03002700021ED8DE
:101ED800C0E0C0F0C083C082C0D075D000C000C0D0
:101EE80001C002C003C004C005C006C00790710944
:0E1EF800E020E703021FC6907109E04480F06D
:101F0600906349E004F0E0C39408400AA3E0600649
:101F1600E4F09062F9F0906349E0C3940A4007E464
:061F2600F0D207A304F055
:101F2C009062F9E06004E0B4090E7F011225F6908E
:101F3C0062F97401F0021FC69062F9E0B4010B78EB
:101F4C0069E24401F27402F080709062F9E0B4032B
:101F5C000D7F021225F69062F97404F0805C906299
:101F6C00F9E0B4040B7869E24401F27405F0804A9C
:101F7C009062F9E0B4050D7F031225F69062F974B6
:101F8C0006F080369062F9E0B4060B7869E2440101
:101F9C00F27407F080249062F9E0B4070D7F04120C
:101FAC0025F69062F97408F080109062F9E0B4089C
:101FBC00097869E24401F27409F0D007D006D00523
:101FCC00D004D003D002D001D000D0D0D082D083A6
:051FDC00D0F0D0E0325E
:1016E90042600300004262650000426263100041EB
:1016F90062670060406005FFFF0000000000000015
:1017090000000000000000000000000000000000D0
:1017190000000000000000000000000000000000C0
:1017290000000000000000000000000000000000B0
:10173900000000000000004160000041600100411C
:05174900600200C10672
:1007D1009063111206F0000000009062F6E0FFA3A2
:1007E100E0906315CFF0A3EFF0906005E0F47003A3
:0807F100A3E0F4600302088597
:1007F900906317F0A3F0906317E0FEA3E0FFC394A2
:1008090020EE9400502E906315E0FCA3E0FDEF2547
:10081900E0FFEE33FE74052FF58274603EF583EC3C
:10082900F0A3EDF0906318E004F070CA906317E04C
:1008390004F080C2E4906317F0A3F0906317E0FE20
:10084900A3E0FFC3940EEE940140030208E690630F
:1008590015E0FCA3E0FDEF25E0FFEE33FE74472F22
:10086900F58274603EF583ECF0A3EDF0906318E037
:0C08790004F070C7906317E004F080BF2B
:10088500906000E025E02405F582E43460F583E01E
:10089500FFA3E0906317CFF0A3EFF0906315E0FEA0
:1008A500A3E0FF906318E02FF0906317E03EF0E0BF
:1008B500C313FEA3E013FF906317EEF0A3EFF090D0
:1008C5006000E025E02405F582E43460F583EEF070
:1008D500A3EFF0906000E004F0E0C394204002E450
:0108E500F022
:1008E600E4906317F0A3F0906311E0F8A3E0F9A396
:1008F600E0FAA3E0FB906318E025E0FF906317E0C1
:1009060033FE74052FF58274603EF583E0FEA3E0A6
:10091600FFE4FCFDEB2FFFEA3EFEED39FDEC38FC73
:100926009063111206E4906318E004F07006906379
:1009360017E004F0906317E07004A3E0642070A74A
:10094600906311E0FCA3E0FDA3E0FEA3E0FF7805C1
:090956001206929063111206E4EE
:10095F00906311A3A3E0FEA3E0FDAC06906046E018
:10096F0025E0FF906045E033FE74472FF5827460F9
:10097F003EF583ECF0A3EDF0906046E004F07006D6
:10098F00906045E004F0C3906046E0940E9060459F
:09099F00E094014004E4F0A3F02F
:1009A800E4906317F0A3F0906265F0A3F09062639F
:1009B8007410F0A3E4F0906317E0FEA3E0FFC39483
:1009C8000EEE94014003020A8DEF25E0FFEE33FEA0
:1009D80074472FF58274603EF583E0FCA3E0FD9038
:1009E8006265E0FAA3E0FBD3ED9BEC9A40167447EE
:1009F8002FF58274603EF583E0FFA3E0906265CF37
:100A0800F0A3EFF0906318E025E0FF906317E03360
:100A1800FE74472FF58274603EF583E0FCA3E0FD89
:100A2800906263E0FAA3E0FBC3ED9BEC9A50167466
:100A3800472FF58274603EF583E0FFA3E090626380
:100A4800CFF0A3EFF0906263E0FEA3E0FFC39062F3
:100A580066E09FFF906265E09EFED3EF9450EE94AF
:100A6800004008906267741EF08009906267E06039
:100A780003E014F0906318E004F07006906317E048
:050A880004F00209BEAC
:100A8D00E47F8B7E06FDFC906311E0F8A3E0F9A3F3
:100A9D00E0FAA3E0FBC31206815020200603020BEF
:100AAD003BE47F8B7E06FDFC906311E0F8A3E0F93B
:100ABD00A3E0FAA3E0FB1206814073E4906001F01D
:100ACD00A3F0D206906267E0B41E33E014F0D39029
:100ADD00630AE094B8906309E0940B400CA3E02402
:100AED00FFF0906309E034FFF0C390630AE094B81F
:100AFD00906309E0940B4003020C24020BC4906236
:100B0D0067E06003020C24200203020C24C202C31E
:100B1D0090630AE09470906309E094174003020C0F
:100B2D0024A3E004F07006906309E004F022E47F52
:100B3D00C37E05FDFC906311E0F8A3E0F9A3E0FA94
:100B4D00A3E0FBD31206814076E47F6D7E06FDFCAB
:100B5D00906311E0F8A3E0F9A3E0FAA3E0FBD31250
:100B6D0006814008906001E0640470532003030285
:100B7D000C24C203906001E0C394045003E004F020
:100B8D00E4906002F0C206D390630AE094B89063DB
:100B9D0009E0940B40028069C390630AE094B89019
:100BAD006309E0940B500DA3E004F0700690630907
:100BBD00E004F022906309740BF0A374B8F022E402
:100BCD007FC37E05FDFC906311E0F8A3E0F9A3E07F
:100BDD00FAA3E0FBD31206814006906002E0603775
:100BED00300334C2039060027401F0E4906001F0B0
:100BFD00C206D390630AE09408906309E09407401D
:100C0D000DA3E024FEF0906309E034FFF022906321
:070C1D00097407F0A304F0C5
:010C240022AD
:1000450002034FE86480F8E933E83360110460F097
:10005500ED33EC337009E8FCE9FDEAFEEBFF220421
:1000650060DED3EB9FEA9EE99DE8C2E78CF0C2F71C
:1000750095F0400CE8CCF8E9CDF9EACEFAEBCFFBE8
:1000850012031A85D0F05804700320D5B3E8047024
:10009500075002B2D502035992D5EC0460F7E4CCBF
:1000A500C0E0C398F8603B94186008400DD0E0FBB1
:1000B500020331E4FBFAC9FC8028E830E406E4C910
:1000C500FBE4CAFCE830E305E4C9CACBFCE8540705
:1000D5006010F8C3E913F9EA13FAEB13FBEC13FC10
:1000E500D8F130F52FC3E49CFCEF9BFFEE9AFEEDB3
:1000F50099FDD0E0FBEF4E4D4C701222DB0302035D
:1001050056EC2CFCEF33FFEE33FEED33FDED30E71F
:10011500EB020331EF2BFFEE3AFEED39FDD0E0FBAC
:1001250050130BBB0003020359ED13FDEE13FEEF55
:0801350013FFEC13FC0203317F
:10013D00EC4D6011E8497017ED33EC3304600DE4BC
:10014D00FCFFFEFD22E933E8330470F802034F1281
:10015D00031A58046009E4CC248150062850090282
:10016D000359284003020356C0E0EB4A7044B9809E
:10017D0006D0E0FB020345EF4E701CBD8008EBFF7F
:10018D00EAFEE9FD80EBE98DF0A4FEE5F002022622
:10019D00E9CDF9EAFEEBFFEF89F0A4FCE5F0CE899D
:1001AD00F0A42EFFE435F0CD89F0A42DFEE435F05A
:1001BD008067EF4E7005BD80D780C3EF8BF0A4AC88
:1001CD00F0EE8BF0A42CFCE435F0F8EF8AF0A42CC3
:1001DD00E5F038FCE433CB8DF0A42CFCE5F03BF8D6
:1001ED00EE8AF0A42CFCE5F038F8E433CF89F0A4C6
:1001FD002CFCE5F038CF3400CE89F0A42FFFE5F0CC
:10020D003EFEE433C98DF0A42EFEE5F039CD8AF023
:10021D00A42FFFE5F03EFEE43DFD33D0E0FB50079B
:10022D000BBB000F020359EC2CFCEF33FFEE33FE3A
:06023D00ED33FD02033168
:10024300020359EC5D046005E85904700302034F8F
:1002530012031A580460F6EC4860F2EC7004FDFED9
:10026300FF22C860DB2481C85009C398600250068E
:100273000203569850CAF582E9294B4A7005AB82AE
:1002830002034575F0007C1A7880C3EF9BEE9AED6C
:1002930099400DC3EF9BFFEE9AFEED99FDE842F006
:1002A300DC23ACF0D0E0FFD0E0FED0E0FDAB822059
:1002B300E7101BEB60BAEC2CFCEF33FFEE33FEEDE3
:1002C30033FD020331E803F830E705C0F075F000B1
:1002D300EF2FFFEE33FEED33FD40B830E7C280AAC7
:1002E300EDD2E7CD33EC3392D524814006E4FFFE13
:1002F300FDFC22FCE4CFCECDCC24E0501174FF8072
:10030300EDC3CC13CCCD13CDCE13CECF13CF04700E
:07031300F030D5DE02067395
:1018CD009063111206E4E4FFFE7D807C3F9063116E
:1018DD00E0F8A3E0F9A3E0FAA3E0FB12037E7006A3
:1018ED00906311021A27906311E0FCA3E0FDA3E0C1
:1018FD00FEA3E0FF120364FBA3E0FCA3E0FDA3E065
:10190D00FEA3E0FF120364FFB40108E4FFFE7D8037
:10191D007C3F22EF64046029EB64046024EBB40186
:10192D0030E4FFFEFDFC906315E0F8A3E0F9A3E0C1
:10193D00FAA3E0FB12037E60084006E4FFFEFDFC07
:10194D00229063151206F0FFFFFFFF906315021A38
:10195D0027E4906319F0A3F0FFFEFDFC906311E006
:10196D00F8A3E0F9A3E0FAA3E0FB12037E505F9029
:10197D006315E0FCA3E0FDA3E0FEA3E0FF1202E38C
:10198D00906319EEF0A3EFF0FDCCEECCEC12040D4C
:10199D00C8ECC8C9EDC9CAEECACBEFCB906315E050
:1019AD00FCA3E0FDA3E0FEA3E0FF120048E4FBFA78
:1019BD00F9F812037E708A906311E0FCA3E0FDA399
:1019CD00E0FEA3E0FF1203F79063111206E49063AB
:1019DD0011E0FCA3E0FDA3E0FEA3E0FF121BB79016
:1019ED006315E0F8A3E0F9A3E0FAA3E0FB12013DD3
:1019FD001225089063151206E490631AE030E01783
:101A0D00906315E0FCA3E0FDA3E0FEA3E0FF12034D
:101A1D00F79063151206E4906315E0FCA3E0FDA3B7
:061A2D00E0FEA3E0FF2231
:10031A00E9D2E7C933E833F892D5EDD2E7CD33EC29
:07032A0033FC5002B2D522A2
:10033100EC30E7100FBF000C0EBE00080DBD00042D
:100341000BEB6014A2D5EB13FCED92E7FD2274FFD9
:10035100FCFDFEFF22E480F8A2D574FF13FC7D8032
:03036100E480EF46
:10036400ED33EC33601004700FED547F70057402AC
:0A03740092E0227404220422E42225
:10037E0074F8CC6480CCC86480C8F58204604FC326
:10038E00EB9FF5F0EA9E42F0E99D42F0E89C45F0C5
:10039E00603C501DE5825FFFE582D313CB5BCBF44F
:1003AE002B5582FB50280ABA002409B90020088078
:1003BE001DE5825BFBE582D313CF5FCFF4C3132F12
:1003CE005582FF50090EBE00050DBD00010CC3EB9A
:1003DE009FF5F0EA9E42F0E99D42F0E89C45F06000
:0903EE0007CC4820E701B3EC2222
:1003F700ED33EC33600A047003BD8004ECB2E7FC14
:0104070022D2
:1004080075F020800E75F010800575F0087D007E6F
:10041800007F003392D530D503120673EC334010B9
:10042800EF33FFEE33FEED33FDEC33FCD5F0ED2278
:0E043800E5F0247EA2D513CC92E7CDCEFF22B4
:1024D00033DA929E35B16011377FE5FE3921848968
:1024E0003AAEC3FF3C1D955B3D6358473E75FDF01A
:1024F0003F3172183F800000C2D502035902034FDA
:10250000BD80FA50F3020356ED33EC330460F17BE7
:102510003B7AAA79B8783F12013DED33EC3392D57E
:10252000247B5011A2D570DB500BED448024045065
:1025300004A2D580CEEFFBEEFAEDF9ECF81202E33F
:10254000EFF582F404FC12041212004CC0829024B5
:10255000D07409120455ED33CC33D0F092D525F068
:0A256000A2D57001C313CC13FD22B5
:101B83003E9248DA3ECCCCCD3F2AAAAB40000000BF
:101B93003F8000003F9837F03FB504F33FD744FC44
:101BA3003E3172173EB172173F0515913EDE5BD988
:101BB300D20B8002C20BEDD2E7F8CD33EC330470C5
:101BC3000BBD800592D502035902034F40FBD3148A
:101BD30060F2F5F07C3FEE7A00C39496C8948B4094
:101BE300230AC89469C8941A401A0AC89468C89406
:101BF3001F40110AC8945AC89425400805F07A007A
:101C0300CDC2E7CDC0F090631B1206E4EA2323C0E4
:101C1300E02493F582E4341BF5831206D412004CBE
:101C2300ECC0E0EDC0E0EEC0E0EFC0E01206B8901B
:101C3300631B1206C8120048D0E0FBD0E0FAD0E0E4
:101C4300F9D0E0B2E7F812024690631B1206E49063
:101C53001B83740312044690631B1206C812013DD2
:101C6300D0E0600F249FF582E4341BF5831206D481
:101C730012004C90631B1206E4D0E0C3947FFDE492
:101C83009400FC12040D7B187A727931783F1201AB
:101C93003D90631B1206C812004C300B0B7BD97AA4
:091CA3005B79DE783E12013D225E
:10044600C0E0EFFBEEFAEDF9ECF812013DD0E0F575
:10045600F0EFFBEEFAEDF9ECF81206B8A3A3A3A3AE
:10046600E8C0E0E9C0E0EAC0E0EBC0E0C0F012019D
:100476003D1206D4A3A3A3A312004CD0F0D0E0FBF8
:0D048600D0E0FAD0E0F9D0E0F8D5F0D422B3
:10257600021CACE493A3F8E493A34003F68001F2B3
:1025860008DFF48029E493A3F85407240CC8C33366
:10259600C4540F4420C8834004F456800146F6DF35
:1025A600E4800B01020408102040809015B6E47EFA
:1025B600019360BCA3FF543F30E509541FFEE4932A
:1025C600A360010ECF54C025E060A840B8E493A3F1
:1025D600FAE493A3F8E493A3C8C582C8CAC583CA1C
:1025E600F0A3C8C582C8CAC583CADFE9DEE780BED4
:01174E00009A
:10049300BB010689828A83E0225002E722BBFE0267
:0904A300E32289828A83E493229A
:1004AC00BB010CE58229F582E5833AF583E0225005
:1004BC0006E92582F8E622BBFE06E92582F8E2224F
:0D04CC00E58229F582E5833AF583E4932269
:1004D900BB010FF8E58229F582E5833AF583E02827
:1004E900F0225009C58229F8E58226F622BBFE09C9
:1004F900C58229F8E22582F222F8EA2583F583E903
:0305090093282212
:10050C00BB010689828A83F0225002F722BBFE01CE
:02051C00F322C8
:10051E00F8BB010DE58229F582E5833AF583E8F013
:10052E00225006E92582C8F622BBFE05E92582C8BF
:02053E00F222A7
:10054000A3F8E0C5F025F0F0E5821582700215836E
:06055000E0C838F0E822CB
:10055600E88FF0A4CC8BF0A42CFCE98EF0A42CFC44
:100566008AF0EDA42CFCEA8EF0A4CDA8F08BF0A4C2
:100576002DCC3825F0FDE98FF0A42CCD35F0FCEB21
:100586008EF0A4FEA9F0EB8FF0A4CFC5F02ECD39E6
:0F059600FEE43CFCEAA42DCE35F0FDE43CFC2253
:1005A50075F008758200EF2FFFEE33FECD33CDCC0D
:1005B50033CCC58233C5829BED9AEC99E582984090
:1005C5000CF582EE9BFEED9AFDEC99FC0FD5F0D66D
:1005D500E4CEFBE4CDFAE4CCF9A88222B800C1B997
:1005E5000059BA002DEC8BF084CFCECDFCE5F0CBD5
:1005F500F97818EF2FFFEE33FEED33FDEC33FCEB0E
:1006050033FB10D703994004EB99FB0FD8E5E4F9C8
:10061500FA227818EF2FFFEE33FEED33FDEC33FCB5
:10062500C933C910D7059BE99A4007EC9BFCE99AA9
:10063500F90FD8E0E4C9FAE4CCFB2275F010EF2FEE
:10064500FFEE33FEED33FDCC33CCC833C810D707EE
:100655009BEC9AE899400AED9BFDEC9AFCE899F829
:0E0665000FD5F0DAE4CDFBE4CCFAE4C8F922BC
:0E067300C3E49FFFE49EFEE49DFDE49CFC2298
:10068100EB9FF5F0EA9E42F0E99D42F0E89C45F0CF
:010691002246
:10069200E8600FECC313FCED13FDEE13FEEF13FF46
:0306A200D8F1226A
:1006A500E8600FEFC333FFEE33FEED33FDEC33FCB3
:0306B500D8F12257
:1006B800E493FC740193FD740293FE740393FF2288
:0C06C800E0F8A3E0F9A3E0FAA3E0FB22B5
:1006D400E493F8740193F9740293FA740393FB227C
:0C06E400ECF0A3EDF0A3EEF0A3EFF02289
:1006F000A8828583F0D083D08212070712070712E1
:100700000707120707E473E493A3C583C5F0C58305
:10071000C8C582C8F0A3C583C5F0C583C8C582C853
:0107200022B6
:10072100BB010DE58229F582E5833AF5830207B322
:100731005007E92582F80207AABBFE07E92582F8DE
:100741000207BCE58229F582E5833AF5830207C5F4
:10075100D083D082F8E4937012740193700DA3A337
:1007610093F8740193F5828883E47374029368604B
:06077100EFA3A3A380DF4B
:060777008A838982E4730D
:10077D00EC8EF0A4CCC5F0CCCDF8EFA4CEC5F02D09
:10078D00FDE43CFCE8A42EC8C5F03DFDE43CFCEFC7
:0D079D00A4FFE5F028FEE43DFDE43CFC2255
:0907AA00E6FB08E6FA08E6F92274
:0907B300E0FBA3E0FAA3E0F92247
:0907BC00E2FB08E2FA08E2F9226E
:0C07C500E493FB740193FA740293F92290
:00000001FF
