:03000000021FEDEF
:0C1FED00787FE4F6D8FD758121022034D5
:0C000300000000000000000000000000F1
:0B26B100EF1FAC0670011E4C70F622FB
:10260900AB07AA06EB1BAE0270011A4E60097FAA3E
:082619007E051226B180ED22BE
:101B1600907120E04480F07F057E001226B1E4FF3C
:101B2600FE12260975A75575AC589071327450F09F
:101B36009071307403F0907136742FF07F18EF2493
:101B460066FDE434718D82F583E4F00FEFB433EE75
:101B5600904011E4935407FF90711CE054F84FF045
:101B6600904017E493547FFF90711DE054804FF02E
:101B7600904010E493FF5401C43333335480FE90F5
:101B86007123E0547F4EF0EFC313543F4440FFA34C
:101B9600E054804FF0904012E493FF540FFE907192
:101BA60046E054F04EF0EFC4540FFF90714FE054EE
:101BB600F04FF0904013E493543FFF907140E0548F
:101BC600C04FF0904014E493907126F0904015E4D5
:0E1BD60093907128F0904016E49390712AF0DD
:011BE40022DE
:0707FA004462F6428C00008E
:102322007417F0A37470F022906314E0FEA3E0FF30
:1023320022C3906277E09470906276E0941722C391
:10234200906279E09470906278E0941722906277BC
:10235200E09F906276E09E22906279E09F906278A0
:03236200E09E22D8
:101E1A001223334003021EA1122341507AE4FFFE2B
:101E2A007D807CBF9062F61206D112002EE4FBFA86
:101E3A0079A87842120228E4FBFA798078BF120066
:101E4A002E9062FA1206ED9062F61206B5E4FBFADB
:101E5A00F9783F12002E9062F61206ED9062FA129D
:101E6A0006B59062EC1206ED7F007E007DA07C40F4
:101E7A0012147FE4FBFA7970784212011F1202C52C
:101E8A00906276EEF0A3EFF0906276E0FFA3E09026
:101E9A006278CFF0A3EFF0122333500512234140AA
:0E1EAA000C906276122322906278122322227C
:10170E0075D9DD121B1675D95590715EE054FEF039
:10171E0075D9BB1224E91225EE121D701223A512E3
:10172E0025AE1224531226219063141223229062A6
:10173E00741223229062701223229062721223225C
:10174E00C294E4906276F0A3F0906278F0A3F0D2A7
:10175E000612232AC312234F400812232A12235A99
:10176E00504B122633121826300321C203C3906346
:10177E0002E094C3906301E09408401012232A12F1
:10178E00234F400812232A12235A5021300805C233
:10179E0008121E1A906276E0FEA3E0FF1226BC909D
:1017AE006278E0FEA3E0FF1226C502175F90627614
:1017BE00E0FFA3E090626BCFF0A3EFF0906278E0D1
:1017CE00FFA3E090626DCFF0A3EFF0C206122633B6
:1017DE00121826121BE5122365122516C294300428
:1017EE000C7B017A6279941212EC120E2B906265C8
:1017FE00E0FEA3E0FF12229190626BEEF0A3EFF0F9
:10180E00906267E0FEA3E0FF12229190626DEEF00F
:08181E00A3EFF012256980B56B
:1008010042627017704262721770426274177042CE
:100811006265177042626B177042626717704262BD
:100821006D177042604300004262630000426261E2
:10083100100041626F00621C604500000000000072
:1008410000000000000000000000000000000000A7
:100851000000000000000000000000000000000097
:100861000000000000000000000000000000000087
:100871000000000000000000000000000000000077
:100A5100000000000000426269000060406000FF89
:100A6100FF00000000000000000000000000000086
:100A71000000000000000000000000000000000075
:100A81000000000000000000000000000000000065
:100A91000000000000000000000000000000004114
:0D0AA1006040004160410041604200C1071B
:10210000EF25E0FFEE33FE74452FF58274603EF557
:1021100083227FC37E05E4FDFC9062E81206D1D3E2
:1021200002067EECF0A3EDF09062ECE475F00102A3
:102130000522D3906273E094B8906272E0940B220F
:102140009062ECE0FEA3E0FFC322906040E025E057
:102150002400F582E43460F58322E49062ECF0A37D
:10216000F02233FE74002FF58274603EF5832290D6
:1021700062EDE025E0FF9062ECE022AC06ECF218A4
:06218000EFF27817E222E5
:101D70007812E24401F278567407F278277417F269
:101D800018746FF27833E4F218F27819E24401F231
:101D90007811E24401F27817E24401F27812E24449
:101DA00001F27814E24401F27818E24401F278D3A7
:101DB000E254CFF2E24410F2E254FCF2E24401F2C7
:101DC00090718AE4F090718C740AF07812E2440207
:101DD000F278577407F278297417F218746FF27852
:101DE00037E4F218F27819E24402F27811E2440280
:101DF000F27817E24402F27812E24402F27814E236
:101E00004402F27818E24402F278D3E254F3F2E2A8
:0A1E10004404F290718B7409F02273
:0926BC00783312217B4401F22263
:0926C500783712217B4402F22255
:100B78009062E81206F900000000906000E0F4704E
:060B880003A3E0F4703F3E
:100B8E0012215B1221409420EE94005015906301C7
:100B9E00E0FCA3E0FDEF25E0FFEE1221621221231F
:100BAE0080E112215A122140940EEE940150599078
:0F0BBE006301E0FCA3E0FD12210012212380E679
:100BCD0012214AE0FFA3E09062ECCFF0A3EFF0908A
:100BDD006301E0FEA3E0FF9062ECEE8FF0120522C0
:100BED009062ECE0C313FEA3E013FF9062ECEEF015
:100BFD00A3EFF012214AEEF0A3EFF0906040E00475
:090C0D00F0E0C394204002E4F081
:100C160012215A9062E81206D112216F122162E067
:100C2600FEA3E0FFE4FCFD1205389062E81206ED33
:100C36001221289062ECE07004A3E0642070D49046
:100C460062E81206B5780512068F9062E81206ED84
:100C56009062E81206B5AD07AC0690626AE025E040
:100C6600FF906269E033FE74452FF58274603EF5AD
:100C760083ECF0A3EDF090626912212BC390626AB7
:0F0C8600E0940E906269E094014004E4F0A3F062
:100C950012215A906263F0A3F09062617410F0A380
:100CA500E4F0122140940EEE94014003020D34123B
:100CB5002100E0FCA3E0FD906263E0FAA3E0FBD332
:100CC500ED9BEC9A400F122107E0FFA3E0906263D1
:100CD500CFF0A3EFF012216F122105E0FCA3E0FD98
:100CE500906261E0FAA3E0FBC3ED9BEC9A500F1212
:100CF5002107E0FFA3E0906261CFF0A3EFF09062DF
:100D050061122143906264E09FFF906263E09EFE62
:100D1500D3EF9450EE9400400890626F741EF080FB
:0F0D25000890626FE0600214F0122128020CA700
:100D3400E47F8B7E06FDFC9062E81206D1C31206A6
:100D44007E500C3007567F8B7E06122116404DE4F0
:100D5400906041F0A3F0D20790626FE0FFB41E1AD6
:100D640014F0122132400774FFF5F0120522C31269
:100D740021334003020E2A020DE5EF6003020E2A1E
:100D8400200203020E2AC202C3906273E0947090A0
:100D94006272E094174003020E2A803C1221124032
:100DA40048E47F6D7E061221174008906041E0649C
:100DB400047036300370C203906041E0C394045061
:100DC40003E004F0E4906042F0C2071221324002D2
:100DD4008043C31221335006E475F001803C9062D5
:100DE40072740BF0A374B8F02212211240069060C2
:100DF40042E0603230032FC2039060427401F0E499
:100E0400906041F0C207D3906273E09408906272DC
:100E1400E09407400874FF75F0FE020522906272A8
:060E24007407F0A304F0C6
:010E2A0022A5
:0326DD00C2942282
:0C268D007818E230E0037F01227F002279
:0C2699007818E230E1037F01227F00226C
:0D2673007818E24401F290718C740AF02294
:0E000F007818E254FEF290718CE4F0D2962242
:0D2680007818E24402F290718B7409F02288
:0E2665007818E254FDF290718BE4F0D29522C9
:10229100906314E0FCA3E0FD1207AFE47B707A17B2
:1022A100F9F81205DED3906271E09F906270E09EB2
:1022B1005005E0FEA3E0FFD3906273E09F9062724D
:1022C100E09E5005E0FEA3E0FFD3906275E09F9091
:0B22D1006274E09E5005E0FEA3E0FFF9
:0122DC0022DF
:100AAE00416303004263010000C101416304004140
:0D0ABE0062FE004162FF00C10041630000C4
:1023E100907123E054F8F0E0441EF09071227407DC
:1023F100F022E47FEA7E0BFDFC9062E80206D11236
:1024010005459062ED1206ED9062ED0206B5E0FF22
:0B2411009062ECE09F9062EBE09E22E6
:1024E90078F2E24403F278E3E244C0F278F0E2548D
:1024F900FDF208E254FDF208E2440CF278D0E2540D
:0D250900F7F208E254F7F208E244C0F222B3
:1021E5009062FEE06F6055EFF0786AE24478F27530
:1021F50091FFEF24FE601214602114602624037001
:102205002E1223E17599188026907123E054D8F099
:10221500E0441D1223EB75991780141223E175997B
:1022250019800C907123E054D81223E775990B7827
:0C22350069E24448F27FD57E021226B117
:01224100227A
:10254300E4FFFE7869E24401F2786BE230E1FAAF2E
:1025530093EF75F010A4FFAEF0E594C4540FFDEFB4
:052563004DFF7402F2BF
:012568002250
:10193800E49062EAF0A3F0A3F09062ED1206F900D9
:10194800000000E49062F1F0A3F074FF9062F3F0FD
:10195800A3F0E49062EAF07869E24401F2786BE27D
:1019680030E1FAAF93EF75F010A4FFE594C4540F7B
:10197800FDEF4DFF9062EBE5F0F0A3EFF07402F29B
:101988009062EAE0C39402404A9062F1E0FEA3D379
:1019980012240F400CE0FFA3E09062F1CFF0A3EF18
:1019A800F09062F3E0FEA3C312240F500CE0FFA3F3
:1019B800E09062F3CFF0A3EFF09062ED1206D190C1
:1019C80062EBE0FEA3E0FFE4FCFD1205389062ED57
:1019D8001206ED9062EAE004F0E064146003021974
:1019E8005F122409C006C0079062F1E0FEA3E0FB85
:1019F800AA06E4F9F8D007D006122400C006C007EA
:101A08009062F3E0FEA3E0FBAA06E4F8D007D00654
:101A1800122400780412068F9062EBEEF0A3EFF028
:081A28009062EBE0FEA3E0FF79
:011A30002293
:1024BB009062EC1206F900000000122543E4FCFDCB
:1024CB009062EC1206EDE47F0CFEFDFC9062EC12C8
:0E24DB0006D1120553E47B0AFAF9F80205DE79
:101BE5009062E81206F900000000906303E06402C9
:101BF5007003021CAD7F011221E51224BB9062E83F
:101C05001206ED906303E070351223F4C312067ECD
:021C1500502C51
:101C17001223F3D312067E40089062FFE004F0809F
:101C270005E49062FFF09062FFE0C3940AE4400786
:0C1C3700F090630304F022906303F0229D
:081C4300906303E0640170628C
:101C4B0020000FD20090630C1206F9000000001266
:101C5B0026A5E47F307E75FDFC90630C1206D1C384
:051C6B0012067E403D61
:101C70001223F3D312067E4008906300E004F08044
:101C800005E4906300F0906300E0C3940A4018E418
:101C9000F09063037402F012265590630C1206F95B
:0D1CA00000000000C200229063037401F0F8
:011CAD002214
:10251600906303E07003020B78906303E0B4010B51
:10252600906270740BF0A374B8F022906303E0B469
:0D253600020A9062707405F0A374DCF022BC
:102633007F021221E5121938906301EEF0A3EFF047
:012643002274
:10236500E4FE7F041221E5122543906304E0701A10
:10237500D3EF9420EE940E5004D2018002C2019056
:1023850062747417F0A37470F022C3EF94C8EE94CE
:0F2395000E4002C2019062747405F0A374DCF074
:0123A4002216
:100ACB0041630B00C108426305000042630700004D
:050ADB00426309000068
:0726D600E475F0010205228A
:1025EE0043A820D2AF75D10178957401F218747694
:0B25FE00F2789174A0F21874FDF22234
:03001E00021CAE13
:101CAE00C0E0C0F0C083C082C0D075D000C0007844
:101CBE0091E220E703021D63E24480F290630BE0A1
:101CCE0004F0E0C3940D4004E4F0D208906295E075
:081CDE00C394FF5003E004F081
:101CE60030042590627BE0601F9063051226D6C300
:101CF600906306E09460906305E094EA4011E4F096
:0F1D0600A3F090627BF08007906305E4F0A3F0F8
:101D15003001279063091226D6906307E4F0A3F0FB
:101D2500C390630AE09432906309E09400402FE485
:101D3500F0A3F090630404F080249063071226D684
:101D4500906309E4F0A3F0C3906308E094409063C6
:0E1D550007E0941F4008E4F0A3F0906304F050
:0D1D6300D000D0D0D082D083D0F0D0E032BC
:070AE00044630C000000005C
:0826CE00789CE2541FF2E222A5
:1023A500E5B154CF42B1789CE254E3F2E24414F231
:1023B500E254FCF2E24401F208E24480F2E24420F5
:1023C500F278A1743BF2187460F2789EE4F208F298
:0C23D5001226CE44A0F253A8BFD2AF22C3
:0C26A5001226CE44C0F243A840D2AF225F
:102655001226CE44A0F2789EE4F208F253A8BF22D7
:0300210002224276
:10224200C0E0C0F0C083C082C0D075D000C000C062
:1022520004C005C006C007789DE230E71DE2448055
:10226200F290630C1206B5EF2401FFE43EFEE43D5A
:10227200FDE43CFC90630C1206EDD007D006D005BD
:0F228200D004D000D0D0D082D083D0F0D0E032C2
:090AE700C102C1034262E60000F5
:102186009062DA1206B5EF4401FFEC9062DA0206BD
:10219600ED9062D9E4F09062DE22906276E0FEA3D2
:1021A600E0FF22906278E0FEA3E0FF22E475F001F2
:1021B6000205229062DF7401F09062DEE4F0229064
:1021C600626CE09F90626BE09E2290626EE09F9050
:0F21D600626DE09E229062D9E004F0E06418226E
:1025AE0043A901D2AF75D104907105E4F090710486
:1025BE007424F090710174A0F090710074FDF022FB
:030024000210A126
:1010A100C0E0C0F0C083C082C0D075D000C000C015
:1010B10001C002C003C004C005C006C00790710191
:1010C100E020E7030212D1E04480F09062E21221B5
:1010D100B29062E41221B29062E61221B2C3906230
:1010E100E5E0940D9062E4E094004006E4F0A3F0A2
:1010F100D203C39062E3E0940D9062E2E094004079
:0711010006E4F0A3F0D202A6
:1011080020833D9062E0E004F0E0C3941E500302A7
:1011180012109062D9E0641760030212109062E125
:10112800E09406400AE094145005122186800B9042
:1011380062E1E0C394014002E0FF1221B9021210FB
:101148009062E0E0D3940050030211F6E0D39432A9
:1011580040129062DA1206F900000000122197048A
:10116800F00211E39062DEE060249062E0E0C39454
:1011780002401BE094075016A3E0C39406400FE01A
:101188009414500A1221861221DB604F803190623C
:10119800DEE060399062E0E0C394074030E09414E8
:1011A800502BA3E0C394014024E09406501F9062A2
:1011B800DA1206B5EF54FE12218F1221DB601CA350
:1011C8001206B578011206A2122191800E9062DAF9
:1011D8001206F900000000122197F09062E0E4F096
:1011E800A3F09062D9E0B418191221B98014906262
:1011F800DEE0700E9062DA1206F90000000012219B
:1012080097F09062E1E004F09062DFE0601B90628A
:10121800D9E4F09062DFF0A3F0A3F09062DA12064E
:09122800B59062CF1206EDD2056B
:10123100C39062E7E094149062E6E09400500302E8
:1012410012D1E4F0A3F03006030212D11221A0D38F
:101251001221C54009906276E475F00180101221D7
:10126100A0C31221C5500A90627674FFF5F01205F1
:10127100221221A9D31221D04009906278E475F09D
:101281000180101221A9C31221D0500A90627874F2
:10129100FFF5F01205221221A01226BC1221A9127B
:1012A10026C5D3906277E09400906276E094005076
:1012B1000512000F8003122673D3906279E0940027
:1012C100906278E094005005122665800312268012
:1012D100D007D006D005D004D003D002D001D00071
:0B12E100D0D0D082D083D0F0D0E0321B
:070AF0004263141770C109F5
:1025CE00E0FEA3E0FF1207AF7B0AE4FAF9F812056A
:1025DE00DEE4229062E9E094DD9062E8E094042269
:10182600E49062E8F0A3F07F031221E512193890E4
:1018360062E8EEF0A3EFF030090302192FD39062AD
:10184600E9E094EA9062E8E09401500AE4906314B7
:10185600F0A3F0021922D31225E15029E0FEA3E0FD
:10186600FFEF2416FFEE34FEFEE434FFFDE434FF02
:10187600FCE47BE07A2EF9F81205531225D67BDDBF
:101886007A04021909D39062E9E094EE9062E8E0E6
:101896009408500E7C5D7DC01225CE7BEE7A080240
:1018A6001909D39062E9E094129062E8E0940B5033
:1018B60017E0FEA3E0FF7C177D701207AF7B0212D4
:1018C60025D87B127A0B803BD39062E9E094BC90DA
:1018D60062E8E0940C500D7C8C7DA01225CE7BBC7A
:1018E6007A0C801FD39062E9E094919062E8E094CC
:1018F6000F501FE0FEA3E0FF7CBB7D801225D37B4B
:10190600917A0FF9F81205DE906314EEF0A3EFF06A
:10191600800A9063147417F0A37470F0906314E057
:101926007002A3E0700BD20922C31225E14002C265
:0119360009A7
:01193700228D
:100AF70041627B00446290FFFFFFFF4662D3000024
:100B070000000000C104C1054462CF00000000548A
:100B1700627C0821222324042526272802292A2B40
:100B27002C012D2E2F30602862A714010203041810
:100B37000506070810090A0B0C150D0E0F100511F5
:100B4700121314081516171806191A1B1C091D1E4F
:100B57001F205362943200000000000F12000000B3
:0C0B6700040001FF1EB8FF0041627A008C
:101A3100740175F02C906265120522D3906266E004
:101A41009470906265E0941722740175F02C906295
:101A510067120522D3906268E09470906267E09407
:101A6100172274FE75F0D4120522C3906266E094C9
:101A71002C906265E094012274FF75F06A120522D0
:101A8100C3906266E09496906265E094002274FED1
:101A910075F0D4120522C3906268E0942C906267BD
:101AA100E094012274FF75F06A120522C390626806
:101AB100E09496906267E094002212068F9062D3C0
:101AC1001206D1C302067E9062CF0206B57417F0EA
:101AD100A37470F0229062D8E064C522EE75F0051F
:101AE100A4247CF582E4346222EE75F005A424A7D7
:101AF100F582E43462227B017A6279D37406F0E4E0
:101B0100FF2212068F9062900206ED9062D31206B8
:051B1100B59062902276
:101EB800200503021F50C205121AC8EC4D4E4F7080
:041EC80003021F4DA5
:101ECC00121AC8EF9062E8F090627BE0602B90628F
:101EDC00E8E0540FFBBB010F121AC87804121B0365
:101EEC009062E8EBF0804A9062E8E0641470421271
:101EFC001AC87808121B038038121AD6702D9062FB
:101F0C00D7E0B40113121AC87804121ABB700990E6
:101F1C0062E8E0540FF080199062D7E0B4020A1224
:101F2C001AC87808121ABB600880009062E874FF27
:101F3C00F09062CF1206F9000000009062E8E0FF1A
:011F4C002272
:061F4D007FFF227FFF224E
:0222DD00A9074F
:1022DF00E4FFFEEB64017014121ADDF583E0B50123
:1022EF0005121ADD80180EEEB404ED22EB640270B5
:1022FF0021FE121AEAF583E0B50112121AEAF583EC
:10230F00E5822DF582E43583F583E0FF220EEEB4EE
:02231F0008E0D4
:012321002299
:082079009062E9EFF0A3EDF025
:10208100E4A3F0A3F090627BE06035121B0C121AFE
:10209100C17018121AD670139062D7E0B401028091
:1020A100339062D7E064027050803C9062E9E0FFB7
:1020B100B4140280379062E9E0FF6401703B80193B
:1020C100121B0C121AC17031121AD6702C9062D7E1
:1020D100E0B4010C9062E9E0FFA3E0FD7B01801117
:1020E1009062D7E0B402129062E9E0FFA3E0FD7BC9
:0E20F100021222DD9062EBEFF09062EBE0FF56
:0120FF0022BE
:100E2B00E49062E8F09062A5E0F470030210A0E099
:100E3B00FFA3E0FD1220799062E8EFF09062A574B9
:050E4B00FFF0E4A3F03C
:100E500090627BE06401705A9062E8E0FF90627AF1
:100E6000E06F7044EF64036005EF642F705E906282
:100E7000D874C5F09062901206B59062D31206ED58
:100E80009062E8E09062D7B403057402F0800374C6
:100E900001F0E4FF1226449062ED121AF712241CAE
:100EA00090627B7402F080249062E8E090627AF0B5
:100EB000801A90627BE0B402139062E8E0FF640461
:0C0EC0006004EFB43006E490627BF02286
:100ECC00121AD660030210A090627BE0600F906251
:100EDC00901206B5121ABE700490627BF09062E814
:100EEC00E01207830F3C010F3C040F4B050F4B081E
:100EFC000F4E090F590B0F680D0F730F0F82110F47
:100F0C0082140F88150F88180F8E190F9D1B0FB3A5
:100F1C001D0FCB1F0FE3210FF623101725101728D9
:100F2C00102C2910532B107A2D107A30000010A0A1
:100F3C0012268DEF7006122699EF600302108602BE
:100F4C001094121A3150030210A002109DE475F097
:100F5C0096121A3650030210A002109D121A4A5013
:100F6C00030210A002109DE475F096121A4F500364
:100F7C000210A002109D906265021024906267021C
:100F8C001024121A6B4019121A6340030210A0802D
:100F9C0023121A81400A121A7940030210A08014FD
:100FAC00E4906265021090121A97400C121A8F404E
:100FBC00030210A0E4021090E490626702109012F9
:100FCC001AAD400C121AA540030210A0E4021090B6
:100FDC00E4906267021090121A314003121ACE127A
:100FEC001A4A50030210A002109D906265E475F03D
:100FFC0096121A394003121ACE906267E475F09675
:10100C00121A5250030210A002109D906265740BCC
:10101C00F0A374B8F0906267740BF0A374B8F0226C
:10102C00121A6B4008121A63500AE48004E49062AE
:10103C0065F0A3F0121A974008121A8F5056E480EC
:10104C0043E4906267803D121A814008121A79506D
:10105C000AE48004E4906265F0A3F0121AAD400833
:10106C00121AA5502FE4801CE49062678016122699
:10107C008DEF7006122699EF600EE4906265F0A376
:10108C00F0906267F0A3F022906265121ACE906223
:04109C0067121ACEEF
:0110A000222D
:1024530078C0E24408F278C2E2543FF278D0E24412
:1024630002F278D2E254F3F2209104D2048002C241
:102473000430040F9062EC121AF712248790627BE7
:042483007401F022CE
:040B730041631300C7
:10258D009062E8F090631002072A90000612048E04
:10259D00FE90000802048E90000912050090000CB8
:0125AD00220B
:1012EC00E49062E8F07FFFA374FFF09063101207A4
:1012FC004A90000112048EFE120475FDEEC39D503F
:10130C000302147E122591900001E4120500900056
:10131C000E1207531207A9EFF4600890631374239D
:10132C00F08009906313E06003E014F012259190B3
:10133C00000312048E6F601590000512048E600D70
:10134C00900004E412050090000302147A9000054A
:10135C0012048EFE90000412048EC39E500B1225B4
:10136C009190000474010204BB12259190000212AA
:10137C00048E6F6048EFF4701C122597C39E400AD0
:10138C00740412258D900002806112259190000A40
:10139C00740102147112259190000874011225A792
:1013AC0012048E6F906310600C12072A74011225C0
:1013BC00A4EF02147112072A900009803DEFF4701B
:1013CC004112259190000912048ED394005003020F
:1013DC00147490000B12048EFE90000A12048ED32B
:1013EC009E4011740112258D90000C12048E906297
:1013FC00E9F0805412259190000A74011204BB028A
:10140C00147412259112259EC394FF500890000865
:10141C0074011204BB122597B506089062E8740299
:10142C00F0802012259190000712259A6E70399049
:10143C0062E8740312259090000612048E90000846
:10144C001205009062E9EFF0122591E41225A474C4
:10145C00FF1205009062E9E0900011120500906205
:10146C00E8E0900012120500122591900002EF1294
:02147C00050069
:01147E00224B
:1026440075AF3F8FAF75AEB975A402E5A530E1FB58
:012654002263
:10241C009062EA12074A75AF3F8FAF9062EDE0C34E
:10242C0094014022E5A530E0FB9062EAE475F001EE
:10243C00120733120475F5A675AEB975A401906236
:07244C00EDE014F080D52241
:102487009062E912074A9062ECE06027AE070FEE10
:102497002400FDE4343F8D82F583E493FE9062E9E6
:1024A700E475F001120733EE1204EE9062ECE014CB
:0424B700F080D322BC
:1026210078D2E254CFF2E24410F2907188E4F0C221
:022631009222F3
:10256900C3906277E09458906276E094025012C367
:10257900906279E09458906278E094025003D29284
:0425890022C29222B6
:10002700020331E86480F8E933E83360110460F0D3
:10003700ED33EC337009E8FCE9FDEAFEEBFF22043F
:1000470060DED3EB9FEA9EE99DE8C2E78CF0C2F73A
:1000570095F0400CE8CCF8E9CDF9EACEFAEBCFFB06
:100067001202FC85D0F05804700320D5B3E8047061
:10007700075002B2D502033B92D5EC0460F7E4CCFB
:10008700C0E0C398F8603B94186008400DD0E0FBCF
:10009700020313E4FBFAC9FC8028E830E406E4C94C
:1000A700FBE4CAFCE830E305E4C9CACBFCE8540723
:1000B7006010F8C3E913F9EA13FAEB13FBEC13FC2E
:1000C700D8F130F52FC3E49CFCEF9BFFEE9AFEEDD1
:1000D70099FDD0E0FBEF4E4D4C701222DB0302037B
:1000E70038EC2CFCEF33FFEE33FEED33FDED30E75C
:1000F700EB020313EF2BFFEE3AFEED39FDD0E0FBE9
:1001070050130BBB000302033BED13FDEE13FEEF91
:0801170013FFEC13FC020313BB
:10011F00EC4D6011E8497017ED33EC3304600DE4DA
:10012F00FCFFFEFD22E933E8330470F802033112BD
:10013F0002FC58046009E4CC2481500628500902BF
:10014F00033B284003020338C0E0EB4A7044B980F8
:10015F0006D0E0FB020327EF4E701CBD8008EBFFBB
:10016F00EAFEE9FD80EBE98DF0A4FEE5F00202085E
:10017F00E9CDF9EAFEEBFFEF89F0A4FCE5F0CE89BB
:10018F00F0A42EFFE435F0CD89F0A42DFEE435F078
:10019F008067EF4E7005BD80D780C3EF8BF0A4ACA6
:1001AF00F0EE8BF0A42CFCE435F0F8EF8AF0A42CE1
:1001BF00E5F038FCE433CB8DF0A42CFCE5F03BF8F4
:1001CF00EE8AF0A42CFCE5F038F8E433CF89F0A4E4
:1001DF002CFCE5F038CF3400CE89F0A42FFFE5F0EA
:1001EF003EFEE433C98DF0A42EFEE5F039CD8AF042
:1001FF00A42FFFE5F03EFEE43DFD33D0E0FB5007BA
:10020F000BBB000F02033BEC2CFCEF33FFEE33FE76
:06021F00ED33FD020313A4
:1002250002033BEC5D046005E859047003020331E9
:100235001202FC580460F6EC4860F2EC7004FDFE16
:10024500FF22C860DB2481C85009C39860025006AC
:100255000203389850CAF582E9294B4A7005AB82EA
:1002650002032775F0007C1A7880C3EF9BEE9AEDA8
:1002750099400DC3EF9BFFEE9AFEED99FDE842F024
:10028500DC23ACF0D0E0FFD0E0FED0E0FDAB822077
:10029500E7101BEB60BAEC2CFCEF33FFEE33FEED01
:1002A50033FD020313E803F830E705C0F075F000ED
:1002B500EF2FFFEE33FEED33FD40B830E7C280AAE5
:1002C500EDD2E7CD33EC3392D524814006E4FFFE31
:1002D500FDFC22FCE4CFCECDCC24E0501174FF8090
:1002E500EDC3CC13CCCD13CDCE13CECF13CF04702D
:0702F500F030D5DE020670B7
:10147F009062E81206EDE4FFFE7D807C3F9062E80B
:10148F00E0F8A3E0F9A3E0FAA3E0FB120360700613
:10149F009062E80215D99062E8E0FCA3E0FDA3E0BA
:1014AF00FEA3E0FF120346FBA3E0FCA3E0FDA3E0D5
:1014BF00FEA3E0FF120346FFB40108E4FFFE7D80A8
:1014CF007C3F22EF64046029EB64046024EBB401D9
:1014DF0030E4FFFEFDFC9062ECE0F8A3E0F9A3E03E
:1014EF00FAA3E0FB12036060084006E4FFFEFDFC78
:1014FF00229062EC1206F9FFFFFFFF9062EC0215DB
:10150F00D9E49062F0F0A3F0FFFEFDFC9062E8E0FA
:10151F00F8A3E0F9A3E0FAA3E0FB120360505F9099
:10152F0062ECE0FCA3E0FDA3E0FEA3E0FF1202C526
:10153F009062F0EEF0A3EFF0FDCCEECCEC1203EFE7
:10154F00C8ECC8C9EDC9CAEECACBEFCB9062ECE0CC
:10155F00FCA3E0FDA3E0FEA3E0FF12002AE4FBFAE8
:10156F00F9F8120360708A9062E8E0FCA3E0FDA333
:10157F00E0FEA3E0FF1203D99062E81206ED90623D
:10158F00E8E0FCA3E0FDA3E0FEA3E0FF1216199034
:10159F0062ECE0F8A3E0F9A3E0FAA3E0FB12011F6D
:1015AF00121F8B9062EC1206ED9062F1E030E017A3
:1015BF009062ECE0FCA3E0FDA3E0FEA3E0FF1203CA
:1015CF00D99062EC1206ED9062ECE0FCA3E0FDA373
:0615DF00E0FEA3E0FF2284
:1002FC00E9D2E7C933E833F892D5EDD2E7CD33EC48
:07030C0033FC5002B2D522C0
:10031300EC30E7100FBF000C0EBE00080DBD00044B
:100323000BEB6014A2D5EB13FCED92E7FD2274FFF7
:10033300FCFDFEFF22E480F8A2D574FF13FC7D8050
:03034300E480EF64
:10034600ED33EC33601004700FED547F70057402CA
:0A03560092E0227404220422E42243
:1003600074F8CC6480CCC86480C8F58204604FC344
:10037000EB9FF5F0EA9E42F0E99D42F0E89C45F0E3
:10038000603C501DE5825FFFE582D313CB5BCBF46D
:100390002B5582FB50280ABA002409B90020088096
:1003A0001DE5825BFBE582D313CF5FCFF4C3132F30
:1003B0005582FF50090EBE00050DBD00010CC3EBB8
:1003C0009FF5F0EA9E42F0E99D42F0E89C45F0601E
:0903D00007CC4820E701B3EC2240
:1003D900ED33EC33600A047003BD8004ECB2E7FC32
:0103E90022F1
:1003EA0075F020800E75F010800575F0087D007E8E
:1003FA00007F003392D530D503120670EC334010DB
:10040A00EF33FFEE33FEED33FDEC33FCD5F0ED2296
:0E041A00E5F0247EA2D513CC92E7CDCEFF22D2
:101F530033DA929E35B16011377FE5FE39218489EA
:101F63003AAEC3FF3C1D955B3D6358473E75FDF09C
:101F73003F3172183F800000C2D502033B02033198
:101F8300BD80FA50F3020338ED33EC330460F17B88
:101F93003B7AAA79B8783F12011FED33EC3392D51F
:101FA300247B5011A2D570DB500BED4480240450E8
:101FB30004A2D580CEEFFBEEFAEDF9ECF81202C5E0
:101FC300EFF582F404FC1203F412002EC082901F7A
:101FD300537409120437ED33CC33D0F092D525F086
:0A1FE300A2D57001C313CC13FD2238
:1015E5003E9248DA3ECCCCCD3F2AAAAB4000000063
:1015F5003F8000003F9837F03FB504F33FD744FCE8
:101605003E3172173EB172173F0515913EDE5BD92B
:10161500D20A8002C20AEDD2E7F8CD33EC3304706A
:101625000BBD800592D502033B02033140FBD31469
:1016350060F2F5F07C3FEE7A00C39496C8948B4037
:10164500230AC89469C8941A401A0AC89468C894A9
:101655001F40110AC8945AC89425400805F07A001D
:10166500CDC2E7CDC0F09062F21206EDEA2323C0A9
:10167500E024F5F582E43415F5831206DD12002E1B
:10168500ECC0E0EDC0E0EEC0E0EFC0E01206C190B6
:1016950062F21206D112002AD0E0FBD0E0FAD0E0C7
:1016A500F9D0E0B2E7F81202289062F21206ED9046
:1016B50015E574031204289062F21206D112011F77
:1016C500D0E0600F2401F582E43416F5831206DDBF
:1016D50012002E9062F21206EDD0E0C3947FFDE475
:1016E5009400FC1203EF7B187A727931783F12016E
:1016F5001F9062F21206D112002E300A0B7BD97AA6
:091705005B79DE783E12011F221F
:10042800C0E0EFFBEEFAEDF9ECF812011FD0E0F5B1
:10043800F0EFFBEEFAEDF9ECF81206C1A3A3A3A3C3
:10044800E8C0E0E9C0E0EAC0E0EBC0E0C0F01201BB
:100458001F1206DDA3A3A3A312002ED0F0D0E0FB49
:0D046800D0E0FAD0E0F9D0E0F8D5F0D422D1
:101FF90002170EE493A3F8E493A34003F68001F2D9
:1020090008DFF48029E493A3F85407240CC8C333E8
:10201900C4540F4420C8834004F456800146F6DFB7
:10202900E4800B01020408102040809007FAE47E46
:10203900019360BCA3FF543F30E509541FFEE493AC
:10204900A360010ECF54C025E060A840B8E493A373
:10205900FAE493A3F8E493A3C8C582C8CAC583CA9E
:10206900F0A3C8C582C8CAC583CADFE9DEE780BE56
:010B7700007D
:10047500BB010689828A83E0225002E722BBFE0285
:09048500E32289828A83E49322B8
:10048E00BB010CE58229F582E5833AF583E0225023
:10049E0006E92582F8E622BBFE06E92582F8E2226D
:0D04AE00E58229F582E5833AF583E4932287
:1004BB00BB010FF8E58229F582E5833AF583E02845
:1004CB00F0225009C58229F8E58226F622BBFE09E7
:1004DB00C58229F8E22582F222F8EA2583F583E921
:0304EB0093282231
:1004EE00BB010689828A83F0225002F722BBFE01ED
:0204FE00F322E7
:10050000F8BB010DE58229F582E5833AF583E8F031
:10051000225006E92582C8F622BBFE05E92582C8DD
:02052000F222C5
:10052200C5F0F8A3E028F0C5F0F8E5821582700264
:060532001583E038F02201
:0D053800EF2BFFEE3AFEED39FDEC38FC2212
:0E054500C3EF9BFFEE9AFEED99FDEC98FC22B1
:10055300E88FF0A4CC8BF0A42CFCE98EF0A42CFC47
:100563008AF0EDA42CFCEA8EF0A4CDA8F08BF0A4C5
:100573002DCC3825F0FDE98FF0A42CCD35F0FCEB24
:100583008EF0A4FEA9F0EB8FF0A4CFC5F02ECD39E9
:0F059300FEE43CFCEAA42DCE35F0FDE43CFC2256
:1005A20075F008758200EF2FFFEE33FECD33CDCC10
:1005B20033CCC58233C5829BED9AEC99E582984093
:1005C2000CF582EE9BFEED9AFDEC99FC0FD5F0D670
:1005D200E4CEFBE4CDFAE4CCF9A88222B800C1B99A
:1005E2000059BA002DEC8BF084CFCECDFCE5F0CBD8
:1005F200F97818EF2FFFEE33FEED33FDEC33FCEB11
:1006020033FB10D703994004EB99FB0FD8E5E4F9CB
:10061200FA227818EF2FFFEE33FEED33FDEC33FCB8
:10062200C933C910D7059BE99A4007EC9BFCE99AAC
:10063200F90FD8E0E4C9FAE4CCFB2275F010EF2FF1
:10064200FFEE33FEED33FDCC33CCC833C810D707F1
:100652009BEC9AE899400AED9BFDEC9AFCE899F82C
:0E0662000FD5F0DAE4CDFBE4CCFAE4C8F922BF
:0E067000C3E49FFFE49EFEE49DFDE49CFC229B
:10067E00EB9FF5F0EA9E42F0E99D42F0E89C45F0D2
:01068E002249
:10068F00E8600FECC313FCED13FDEE13FEEF13FF49
:03069F00D8F1226D
:1006A200E8600FEFC333FFEE33FEED33FDEC33FCB6
:0306B200D8F1225A
:0C06B500E0FCA3E0FDA3E0FEA3E0FF22B8
:1006C100E493FC740193FD740293FE740393FF227F
:0C06D100E0F8A3E0F9A3E0FAA3E0FB22AC
:1006DD00E493F8740193F9740293FA740393FB2273
:0C06ED00ECF0A3EDF0A3EEF0A3EFF02280
:1006F900A8828583F0D083D08212071012071012C6
:100709000710120710E473E493A3C583C5F0C583EA
:10071900C8C582C8F0A3C583C5F0C583C8C582C84A
:0107290022AD
:09072A00E0FBA3E0FAA3E0F922D0
:10073300F8E0FBA3A3E0F925F0F0E582158270024F
:070743001583E0FA38F022F3
:09074A00EBF0A3EAF0A3E9F022B0
:10075300BB010DE58229F582E5833AF58302072A79
:100763005007E92582F80207DCBBFE07E92582F87A
:100773000207E5E58229F582E5833AF5830207EE70
:10078300D083D082F8E4937012740193700DA3A305
:1007930093F8740193F5828883E473740293686019
:0607A300EFA3A3A380DF19
:0607A9008A838982E473DB
:1007AF00EC8EF0A4CCC5F0CCCDF8EFA4CEC5F02DD7
:1007BF00FDE43CFCE8A42EC8C5F03DFDE43CFCEF95
:0D07CF00A4FFE5F028FEE43DFDE43CFC2223
:0907DC00E6FB08E6FA08E6F92242
:0907E500E2FB08E2FA08E2F92245
:0C07EE00E493FB740193FA740293F92267
:00000001FF
