:030000000221F9E1
:0C21F900787FE4F6D8FD758121022240B9
:0C000300000000000000000000000000F1
:0B28C400EF1FAC0670011E4C70F622E6
:10281C00AB07AA06EB1BAE0270011A4E60097FAA29
:08282C007E051228C480ED2294
:101D2B00907120E04480F07F057E001228C4E4FF10
:101D3B00FE12281C75A75575AC589071327450F073
:101D4B009071307403F0907136742FF07F18EF247C
:101D5B0066FDE434718D82F583E4F00FEFB433EE5E
:101D6B00904011E4935407FF90711CE054F84FF02E
:101D7B00904017E493547FFF90711DE054804FF017
:101D8B00904010E493FF5401C43333335480FE90DE
:101D9B007123E0547F4EF0EFC313543F4440FFA335
:101DAB00E054804FF0904012E493FF540FFE90717B
:101DBB0046E054F04EF0EFC4540FFF90714FE054D7
:101DCB00F04FF0904013E493543FFF907140E05478
:101DDB00C04FF0904014E493907126F0904015E4BE
:0E1DEB0093907128F0904016E49390712AF0C6
:011DF90022C7
:0707FA00446518428C000069
:10252E007417F0A37470F022906534E0FEA3E0FF00
:10253E0022C3906493E09470906492E0941722C347
:10254E00906495E09470906494E094172290649354
:10255E00E09F906492E09E22906495E09F90649438
:03256E00E09E22CA
:1020260012253F40030220AD12254D507AE4FFFEF3
:102036007D807CBF9065181206D112002EE4FBFA53
:1020460079A87842120228E4FBFA798078BF120058
:102056002E90651C1206ED9065181206B5E4FBFA83
:10206600F9783F12002E9065181206ED90651C1245
:1020760006B59064F91206ED7F007E007DA07C40D7
:10208600121693E4FBFA7970784212011F1202C508
:10209600906492EEF0A3EFF0906492E0FFA3E090DC
:1020A6006494CFF0A3EFF012253F500512254D4062
:0E20B6000C90649212252E90649412252E2216
:1019220075D9DD121D2B75D95590715EE054FEF00C
:1019320075D9BB1226FC122801121F7C1225F31244
:1019420027C112266612283490653412252E90641F
:101952009012252E90648C12252E90648E12252EC4
:10196200C294E4906492F0A3F0906494F0A3F0D255
:1019720006122536C312255B40081225361225664B
:10198200504B122846121A3B300321C203C3906502
:1019920029E094C3906528E094084010122536127D
:1019A200255B40081225361225665021300805C2F3
:1019B20008122026906492E0FEA3E0FF1228CF9046
:1019C2006494E0FEA3E0FF1228D802197390649297
:1019D200E0FFA3E0906487CFF0A3EFF0906494E07F
:1019E200FFA3E0906489CFF0A3EFF0C2061228466D
:1019F200121A3B121EBC1225B31227291228F030EC
:101A0200040C7B017A6479B012150012103F9064C5
:101A120081E0FEA3E0FF12249D906487EEF0A3EF25
:101A2200F0906483E0FEA3E0FF12249D906489EEAF
:091A3200F0A3EFF012277C80B450
:1008010042648C177042648E177042649017704274
:100811006481177042648717704264831770426461
:10082100891770426043000042647F000042647D8A
:10083100100041648B006438604500000000000036
:1008410000000000000000000000000000000000A7
:100851000000000000000000000000000000000097
:100861000000000000000000000000000000000087
:100871000000000000000000000000000000000077
:100C71000000426485000060406000FFFF0000004A
:100C81000000000000000000000000000000000063
:100C91000000000000000000000000000000000053
:100CA1000000000000000000000000000000000043
:100CB1000000000000000000000000416040004111
:090CC10060410041604200C107DE
:10230C00EF25E0FFEE33FE74452FF58274603EF549
:10231C0083227FC37E05E4FDFC9064F51206D1D3C5
:10232C0002067EECF0A3EDF09064F9E475F0010286
:10233C000522D390648FE094B890648EE0940B22C5
:10234C009064F9E0FEA3E0FFC322906040E025E03A
:10235C002400F582E43460F58322E49064F9F0A360
:10236C00F02233FE74002FF58274603EF5832290C8
:10237C0064FAE025E0FF9064F9E022AC06ECF21878
:06238C00EFF27817E222D7
:101F7C007812E24401F278567407F278277417F25B
:101F8C0018746FF27833E4F218F27819E24401F223
:101F9C007811E24401F27817E24401F27812E2443B
:101FAC0001F27814E24401F27818E24401F278D399
:101FBC00E254CFF2E24410F2E254FCF2E24401F2B9
:101FCC0090718AE4F090718C740AF07812E24402F9
:101FDC00F278577407F278297417F218746FF27844
:101FEC0037E4F218F27819E24402F27811E2440272
:101FFC00F27817E24402F27812E24402F27814E228
:10200C004402F27818E24402F278D3E254F3F2E29A
:0A201C004404F290718B7409F02265
:0928CF0078331223874401F22240
:0928D80078371223874402F22232
:100D8C009064F51206F900000000906000E0F47029
:060D9C0003A3E0F4703F28
:100DA20012236712234C9420EE940050159065286C
:100DB200E0FCA3E0FDEF25E0FFEE12236E12232FED
:100DC20080E112236612234C941CEE940250599037
:0F0DD2006528E0FCA3E0FD12230C12232F80E61E
:100DE100122356E0FFA3E09064F9CFF0A3EFF09057
:100DF1006528E0FEA3E0FF9064F9EE8FF012052272
:100E01009064F9E0C313FEA3E013FF9064F9EEF0E0
:100E1100A3EFF0122356EEF0A3EFF0906040E00450
:090E2100F0E0C394204002E4F06B
:100E2A001223669064F51206D112237B12236EE018
:100E3A00FEA3E0FFE4FCFD1205389064F51206ED0E
:100E4A001223349064F9E07004A3E0642070D49013
:100E5A0064F51206B5780512068F9064F51206ED50
:100E6A009064F51206B5AD07AC06906486E025E0FD
:100E7A00FF906485E033FE74452FF58274603EF579
:100E8A0083ECF0A3EDF0906485122337C390648657
:0F0E9A00E0941C906485E094024004E4F0A3F01F
:100EA90012236690647FF0A3F090647D7410F0A320
:100EB900E4F012234C941CEE94024003020F4812F2
:100EC900230CE0FCA3E0FD90647FE0FAA3E0FBD3F0
:100ED900ED9BEC9A400F122313E0FFA3E090647F8F
:100EE900CFF0A3EFF012237B122311E0FCA3E0FD66
:100EF90090647DE0FAA3E0FBC3ED9BEC9A500F12DE
:100F09002313E0FFA3E090647DCFF0A3EFF090649A
:100F19007D12234F906480E09FFF90647FE09EFEE6
:100F2900D3EF9450EE9400400890648B741EF080C7
:0F0F39000890648BE0600214F0122334020EBBA8
:100F4800E47F8B7E06FDFC9064F51206D1C3120681
:100F58007E500C3007567F8B7E06122322404DE4CC
:100F6800906041F0A3F0D20790648BE0FFB41E1AA2
:100F780014F012233E400774FFF5F0120522C31245
:100F8800233F400302103E020FF9EF600302103EB8
:100F980020020302103EC202C390648FE094709056
:100FA800648EE09417400302103E803C12231E40DA
:100FB80048E47F6D7E061223234008906041E06478
:100FC800047036300370C203906041E0C39404504B
:100FD80003E004F0E4906042F0C20712233E4002AE
:100FE8008043C312233F5006E475F001803C9064AF
:100FF8008E740BF0A374B8F02212231E4006906082
:1010080042E0603230032FC2039060427401F0E482
:10101800906041F0C207D390648FE0940890648E8A
:10102800E09407400874FF75F0FE02052290648E74
:061038007407F0A304F0B0
:01103E00228F
:0328F000C294226D
:0C28A0007818E230E0037F01227F002264
:0C28AC007818E230E1037F01227F002257
:0D2886007818E24401F290718C740AF0227F
:0E000F007818E254FEF290718CE4F0D2962242
:0D2893007818E24402F290718B7409F02273
:0E2878007818E254FDF290718BE4F0D29522B4
:10249D00906534E0FCA3E0FD1207AFE47B707A1782
:1024AD00F9F81205DED390648DE09F90648CE09E68
:1024BD005005E0FEA3E0FFD390648FE09F90648E03
:1024CD00E09E5005E0FEA3E0FFD3906491E09F9065
:0B24DD006490E09E5005E0FEA3E0FFCD
:0124E80022D1
:100CCA0041652A004265280000C10141652B0041A7
:050CDA00652700C100C8
:10257100907123E054F8F0E0441EF090712274074A
:10258100F0221205459065011206ED9065010206E3
:10259100B5E0FF906500E09F9064FFE09E229064AB
:1025A100F9E004F0E0C3940A22FDFC1206D1C30253
:0225B100067EA4
:1026FC0078F2E24403F278E3E244C0F278F0E25478
:10270C00FDF208E254FDF208E2440CF278D0E254F7
:0D271C00F7F208E254F7F208E244C0F2229E
:1023F100906527E06F6055EFF0786AE24478F275F6
:1024010091FFEF24FE6012146021146026240370F2
:102411002E1225717599188026907123E054D8F0F9
:10242100E0441D12257B7599178014122571759949
:1024310019800C907123E054D812257775990B7887
:0C24410069E24448F27F017E0012281C72
:01244D00226C
:10275600E4FFFE7869E24401F2786BE230E1FAAF19
:1027660093EF75F010A4FFAEF0E594C4540FFDEF9F
:052776004DFF7402F2AA
:01277B00223B
:101B4D00E49064FEF0A3F0A3F09065011206F90095
:101B5D00000000E4906505F0A3F074FF906507F0B8
:101B6D00A3F0E49064FEF07869E24401F2786BE250
:101B7D0030E1FAAF93EF75F010A4FFE594C4540F64
:101B8D00FDEF4DFF9064FFE5F0F0A3EFF07402F26E
:101B9D009064FEE0C39402404A906505E0FEA3D335
:101BAD00122592400CE0FFA3E0906505CFF0A3EF66
:101BBD00F0906507E0FEA3C3122592500CE0FFA341
:101BCD00E0906507CFF0A3EFF09065011206D1907C
:101BDD0064FFE0FEA3E0FFE4FCFD12053890650113
:101BED001206ED9064FEE004F0E064146003021B45
:101BFD007412258CC006C007906505E0FEA3E0FBBE
:101C0D00AA06E4F9F8D007D006122583C006C0074E
:101C1D00906507E0FEA3E0FBAA06E4F8D007D00626
:101C2D00122583780412068F9064FFEEF0A3EFF077
:081C3D009064FFE0FEA3E0FF4C
:011C4500227C
:1026CE009064FA1206F900000000121B4DE4FCFDA6
:1026DE009064FA1206EDE47F0CFEFDFC9064FA1293
:0E26EE0006D1120553E47B0AFAF9F80205DE64
:101EBC009064F51206F90000000090652AE06402B7
:101ECC007003021F647F011223F11226CE9064F579
:101EDC001206ED90652AE070287FEA7E0B9064F57F
:051EEC001225AA501CA4
:101EF100E49064F9F0F0121F65D312067E4006E407
:0C1F010090652AF02212259F40EC8036EB
:081F0D0090652AE06401704FA9
:101F150020000FD20090652C1206F9000000001277
:0F1F250028B8E47F307E7590652C1225AA4030D5
:101F3400E49064F9F0F0121F65D312067E40079016
:101F4400652A7401F02212259F40EB90652A7402E1
:101F5400F012286890652C1206F900000000C200F7
:101F6400221226CE9064F51206EDE47FEA7E0BFD84
:081F7400FC9064F51206D12275
:1027290090652AE07003020D8C90652AE0B4010BD4
:1027390090648C740BF0A374B8F02290652AE0B40D
:0D274900020A90648C7405F0A374DCF02289
:102846007F021223F1121B4D906528EEF0A3EFF0E4
:01285600225F
:1025B300E4FE7F041223F1121B4D90652BE0701A89
:1025C300D3EF9420EE940E5004D2018002C2019006
:1025D30064907417F0A37470F022C3EF94C8EE9460
:0F25E3000E4002C2019064907405F0A374DCF006
:0125F20022C6
:100CDF0041652600C10842652000004265220000E0
:050CEF00426524000035
:0728E900E475F00102052275
:1028010043A820D2AF75D10178957401F21874767E
:0B281100F2789174A0F21874FDF2221E
:03001E00021DFAC6
:101DFA00C0E0C0F0C083C082C0D075D000C00078F7
:101E0A0091E220E703021EAFE24480F2906526E0E9
:101E1A0004F0E0C3940D4004E4F0D2089064B1E009
:081E2A00C394FF5003E004F033
:101E3200300425906497E0601F9065201228E9C362
:101E4200906521E09460906520E094EA4011E4F00E
:0F1E5200A3F0906497F08007906520E4F0A3F070
:101E61003001279065241228E9906522E4F0A3F05F
:101E7100C3906525E09432906524E09400402FE4FE
:101E8100F0A3F090652B04F080249065221228E9DC
:101E9100906524E4F0A3F0C3906523E0944090653D
:0E1EA10022E0941F4008E4F0A3F090652BF0BF
:0D1EAF00D000D0D0D082D083D0F0D0E0326F
:070CF40044652C0000000024
:0828E100789CE2541FF2E22290
:1025F300E5B154CF42B1789CE254E3F2E24414F2E1
:10260300E254FCF2E24401F208E24480F2E24420A4
:10261300F278A1743BF2187460F2789EE4F208F247
:0C2623001228E144A0F253A8BFD2AF225D
:0C28B8001228E144C0F243A840D2AF2235
:102868001228E144A0F2789EE4F208F253A8BF22AD
:0300210002244E68
:10244E00C0E0C0F0C083C082C0D075D000C000C054
:10245E0004C005C006C007789DE230E71DE2448047
:10246E00F290652C1206B5EF2401FFE43EFEE43D2A
:10247E00FDE43CFC90652C1206EDD007D006D0058D
:0F248E00D004D000D0D0D082D083D0F0D0E032B4
:090CFB00C102C1034265160000AC
:1023920090650A1206B5EF4401FFEC90650A020649
:1023A200ED906509E4F090650E22906492E0FEA340
:1023B200E0FF22906494E0FEA3E0FF22E475F001C6
:1023C20002052290650F7401F090650EE4F02290F0
:1023D2006488E09F906487E09E2290648AE09F90E8
:0F23E2006489E09E22906509E004F0E06418220F
:1027C10043A901D2AF75D104907105E4F090710471
:1027D1007424F090710174A0F090710074FDF022E6
:030024000212B510
:1012B500C0E0C0F0C083C082C0D075D000C000C0FF
:1012C50001C002C003C004C005C006C0079071017B
:1012D500E020E7030214E5E04480F0906512122354
:1012E500BE9065141223BE9065161223BEC3906589
:1012F50015E0940D906514E094004006E4F0A3F029
:10130500D203C3906513E0940D906512E0940040FC
:0713150006E4F0A3F0D20290
:10131C0020833D906510E004F0E0C3941E5003025E
:10132C001424906509E0641760030214249065117D
:10133C00E09406400AE094145005122392800B901E
:10134C006511E0C394014002E0FF1223C50214248E
:10135C00906510E0D39400500302140AE0D3943249
:10136C00401290650A1206F9000000001223A30433
:10137C00F00213F790650EE06024906510E0C394C2
:10138C0002401BE094075016A3E0C39406400FE004
:10139C009414500A1223921223E7604F8031906507
:1013AC000EE06039906510E0C394074030E094146F
:1013BC00502BA3E0C394014024E09406501F906589
:1013CC000A1206B5EF54FE12239B1223E7601CA3EE
:1013DC001206B578011206A212239D800E90650AA2
:1013EC001206F9000000001223A3F0906510E4F03F
:1013FC00A3F0906509E0B418191223C58014906508
:10140C000EE0700E90650A1206F90000000012231F
:10141C00A3F0906511E004F090650FE0601B9065FF
:10142C0009E4F090650FF0A3F0A3F090650A1206A2
:09143C00B59064EB1206EDD20537
:10144500C3906517E09414906516E094005003026C
:1014550014E5E4F0A3F03006030214E51223ACD33F
:101465001223D14009906492E475F0018010122393
:10147500ACC31223D1500A90649274FFF5F01205A3
:10148500221223B5D31223DC4009906494E475F04D
:101495000180101223B5C31223DC500A90649474A2
:1014A500FFF5F01205221223AC1228CF1223B51234
:1014B50028D8D3906493E09400906492E09400500F
:1014C5000512000F8003122886D3906495E09400DE
:1014D500906494E0940050051228788003122893B4
:1014E500D007D006D005D004D003D002D001D0005B
:0B14F500D0D0D082D083D0F0D0E03205
:070D04004265341770C109BC
:1027E100E0FEA3E0FF1207AF7B0AE4FAF9F8120555
:1027F100DEE4229064F6E094DD9064F5E094042236
:101A3B00E49064F5F0A3F07F031223F1121B4D9099
:101A4B0064F5EEF0A3EFF0300903021B44D390646E
:101A5B00F6E094EA9064F5E09401500AE490653462
:101A6B00F0A3F0021B37D31227F45029E0FEA3E0BA
:101A7B00FFEF2416FFEE34FEFEE434FFFDE434FFEB
:101A8B00FCE47BE07A2EF9F81205531227E97BDD93
:101A9B007A04021B1ED39064F6E094EE9064F5E09A
:101AAB009408500E7C5D7DC01227E17BEE7A080214
:101ABB001B1ED39064F6E094129064F5E0940B50E7
:101ACB0017E0FEA3E0FF7C177D701207AF7B0212BD
:101ADB0027EB7B127A0B803BD39064F6E094BC909F
:101AEB0064F5E0940C500D7C8C7DA01227E17BBC3F
:101AFB007A0C801FD39064F6E094919064F5E09497
:101B0B000F501FE0FEA3E0FF7CBB7D801227E67B1E
:101B1B00917A0FF9F81205DE906534EEF0A3EFF031
:101B2B00800A9065347417F0A37470F0906534E0FC
:101B3B007002A3E0700BD20922C31227F44002C239
:011B4B000990
:011B4C002276
:100D0B00416497004464ACFFFFFFFF4664EF0000B3
:100D1B0000000000C104C1054464EB000000005456
:100D2B0064980821222324042526272802292A2B0C
:100D3B002C012D2E2F30602864C3140102030418DC
:100D4B000506070810090A0B0C150D0E0F100511DF
:100D5B00121314081516171806191A1B1C091D1E39
:100D6B001F205364B03200000000000F120000007F
:0C0D7B00040001FF20C4FF00416496004A
:101C4600740175F02C906481120522D3906482E0B1
:101C56009470906481E0941722740175F02C90645E
:101C660083120522D3906484E09470906483E09498
:101C7600172274FE75F0D4120522C3906482E09494
:101C86002C906481E094012274FF75F06A1205229B
:101C9600C3906482E09496906481E094002274FE7E
:101CA60075F0D4120522C3906484E0942C9064836A
:101CB600E094012274FF75F06A120522C3906484D1
:101CC600E09496906483E094002212068F9064EF6D
:101CD6001206D1C302067E9064EB0206B57417F0B5
:101CE600A37470F0229064F4E064C522EE75F005EA
:101CF600A42498F582E4346422EE75F005A424C386
:101D0600F582E43464227B017A6479EF7406F0E4A8
:101D1600FF2212068F9064AC0206ED9064EF120665
:051D2600B59064AC2241
:1020C40020050302215CC205121CDDEC4D4E4F704D
:0420D4000302215989
:1020D800121CDDEF9064F5F0906497E0602B90643B
:1020E800F5E0540FFBBB010F121CDD7804121D181C
:1020F8009064F5EBF0804A9064F5E0641470421245
:102108001CDD7808121D188038121CEB702D9064A5
:10211800F3E0B40113121CDD7804121CD07009908E
:1021280064F5E0540FF080199064F3E0B4020A12E9
:102138001CDD7808121CD0600880009064F574FFDC
:10214800F09064EB1206F9000000009064F5E0FFDF
:012158002264
:062159007FFF227FFF2240
:0224E900A90741
:1024EB00E4FFFEEB64017014121CF2F583E0B501FE
:1024FB0005121CF280180EEEB404ED22EB64027090
:10250B0021FE121CFFF583E0B50112121CFFF583AF
:10251B00E5822DF582E43583F583E0FF220EEEB4E0
:02252B0008E0C6
:01252D00228B
:082285009064F6EFF0A3EDF008
:10228D00E4A3F0A3F0906497E06035121D21121CB9
:10229D00D67018121CEB70139064F3E0B401028039
:1022AD00339064F3E064027050803C9064F6E0FF7C
:1022BD00B4140280379064F6E0FF6401703B80191E
:1022CD00121D21121CD67031121CEB702C9064F370
:1022DD00E0B4010C9064F6E0FFA3E0FD7B018011FA
:1022ED009064F3E0B402129064F6E0FFA3E0FD7B8E
:0E22FD00021224E99064F8EFF09064F8E0FF1C
:01230B0022AF
:10103F00E49064F5F09064C1E0F470030212B4E040
:10104F00FFA3E0FD1222859064F5EFF09064C17468
:05105F00FFF0E4A3F026
:10106400906497E06401705A9064F5E0FF90649690
:10107400E06F7044EF64036005EF642F705E90646A
:10108400F474C5F09064AC1206B59064EF1206EDEA
:101094009064F5E09064F3B403057402F080037483
:1010A40001F0E4FF1228579064FA121D0C12262F47
:1010B4009064977402F080249064F5E0906496F054
:1010C400801A906497E0B402139064F5E0FF64041E
:0C10D4006004EFB43006E4906497F02252
:1010E000121CEB60030212B4906497E0600F9064EE
:1010F000AC1206B5121CD37004906497F09064F59E
:10110000E0120783115001115004115F05115F08AF
:10111000116209116D0B117C0D11870F11961111C0
:101120009614119C15119C1811A21911B11B11C70D
:101130001D11DF1F11F721120A23122B25122B2854
:1011400012402912672B128E2D128E30000012B41D
:101150001228A0EF70061228ACEF600302129A0268
:1011600012A8121C4650030212B40212B1E475F028
:1011700096121C4B50030212B40212B1121C5F50A3
:10118000030212B40212B1E475F096121C6450030B
:101190000212B40212B19064810212389064830288
:1011A0001238121C804019121C7840030212B480BD
:1011B00023121C96400A121C8E40030212B48014A3
:1011C000E49064810212A4121CAC400C121CA440D6
:1011D000030212B4E40212A4E49064830212A41283
:1011E0001CC2400C121CBA40030212B4E40212A446
:1011F000E49064830212A4121C464003121CE31202
:101200001C5F50030212B40212B1906481E475F0C5
:1012100096121C4E4003121CE3906483E475F09612
:10122000121C6750030212B40212B1906481740B55
:10123000F0A374B8F0906483740BF0A374B8F02238
:10124000121C804008121C78500AE48004E4906468
:1012500081F0A3F0121CAC4008121CA45056E4808C
:1012600043E4906483803D121C964008121C8E500B
:101270000AE48004E4906481F0A3F0121CC24008E8
:10128000121CBA502FE4801CE4906483801612284C
:10129000A0EF70061228ACEF600EE4906481F0A31A
:1012A000F0906483F0A3F022906481121CE39064B8
:0412B00083121CE3A6
:0112B4002217
:1026660078C0E24408F278C2E2543FF278D0E244FD
:1026760002F278D2E254F3F2209104D2048002C22C
:102686000430040F9064F9121D0C12269A90649778
:042696007401F022B9
:040D8700416533008F
:1027A0009064F5F090653002072A90000612048EBE
:1027B000FE90000802048E90000912050090000CA3
:0127C00022F6
:10150000E49064F5F07FFFA374FFF090653012075C
:101510004A90000112048EFE120475FDEEC39D5028
:10152000030216921227A4900001E4120500900015
:101530000E1207531207A9EFF46008906533742365
:10154000F08009906533E06003E014F01227A49066
:10155000000312048E6F601590000512048E600D5A
:10156000900004E412050090000302168E9000051E
:1015700012048EFE90000412048EC39E500B12279C
:10158000A490000474010204BB1227A4900002126C
:10159000048E6F6048EFF4701C1227AAC39E400AA5
:1015A00074041227A090000280611227A490000A00
:1015B00074010216851227A490000874011227BA3C
:1015C00012048E6F906530600C12072A7401122786
:1015D000B7EF02168512072A900009803DEFF470DC
:1015E000411227A490000912048ED39400500302E4
:1015F000168890000B12048EFE90000A12048ED3FF
:101600009E401174011227A090000C12048E906469
:10161000F6F080541227A490000A74011204BB0251
:1016200016881227A41227B1C394FF50089000080F
:1016300074011204BB1227AAB506089064F574025F
:10164000F080201227A49000071227AD6E70399009
:1016500064F574031227A390000612048E9000080C
:101660001205009064F6EFF01227A4E41227B77475
:10167000FF1205009064F6E09000111205009064DE
:10168000F5E09000121205001227A4900002EF125C
:02169000050053
:011692002235
:1028570075AF3F8FAF75AEB975A402E5A530E1FB43
:01286700224E
:10262F009064F712074A75AF3F8FAF9064FAE0C31B
:10263F0094014022E5A530E0FB9064F7E475F001CA
:10264F00120733120475F5A675AEB975A40190641F
:07265F00FAE014F080D5221F
:10269A009064F612074A9064F9E06027AE070FEEDD
:1026AA002400FDE4343F8D82F583E493FE9064F6C2
:1026BA00E475F001120733EE1204EE9064F9E014A7
:0426CA00F080D322A7
:1028340078D2E254CFF2E24410F2907188E4F0C20C
:022844009222DE
:10277C00C3906493E09458906492E094025012C316
:10278C00906495E09458906494E094025003D29233
:04279C0022C29222A1
:10002700020331E86480F8E933E83360110460F0D3
:10003700ED33EC337009E8FCE9FDEAFEEBFF22043F
:1000470060DED3EB9FEA9EE99DE8C2E78CF0C2F73A
:1000570095F0400CE8CCF8E9CDF9EACEFAEBCFFB06
:100067001202FC85D0F05804700320D5B3E8047061
:10007700075002B2D502033B92D5EC0460F7E4CCFB
:10008700C0E0C398F8603B94186008400DD0E0FBCF
:10009700020313E4FBFAC9FC8028E830E406E4C94C
:1000A700FBE4CAFCE830E305E4C9CACBFCE8540723
:1000B7006010F8C3E913F9EA13FAEB13FBEC13FC2E
:1000C700D8F130F52FC3E49CFCEF9BFFEE9AFEEDD1
:1000D70099FDD0E0FBEF4E4D4C701222DB0302037B
:1000E70038EC2CFCEF33FFEE33FEED33FDED30E75C
:1000F700EB020313EF2BFFEE3AFEED39FDD0E0FBE9
:1001070050130BBB000302033BED13FDEE13FEEF91
:0801170013FFEC13FC020313BB
:10011F00EC4D6011E8497017ED33EC3304600DE4DA
:10012F00FCFFFEFD22E933E8330470F802033112BD
:10013F0002FC58046009E4CC2481500628500902BF
:10014F00033B284003020338C0E0EB4A7044B980F8
:10015F0006D0E0FB020327EF4E701CBD8008EBFFBB
:10016F00EAFEE9FD80EBE98DF0A4FEE5F00202085E
:10017F00E9CDF9EAFEEBFFEF89F0A4FCE5F0CE89BB
:10018F00F0A42EFFE435F0CD89F0A42DFEE435F078
:10019F008067EF4E7005BD80D780C3EF8BF0A4ACA6
:1001AF00F0EE8BF0A42CFCE435F0F8EF8AF0A42CE1
:1001BF00E5F038FCE433CB8DF0A42CFCE5F03BF8F4
:1001CF00EE8AF0A42CFCE5F038F8E433CF89F0A4E4
:1001DF002CFCE5F038CF3400CE89F0A42FFFE5F0EA
:1001EF003EFEE433C98DF0A42EFEE5F039CD8AF042
:1001FF00A42FFFE5F03EFEE43DFD33D0E0FB5007BA
:10020F000BBB000F02033BEC2CFCEF33FFEE33FE76
:06021F00ED33FD020313A4
:1002250002033BEC5D046005E859047003020331E9
:100235001202FC580460F6EC4860F2EC7004FDFE16
:10024500FF22C860DB2481C85009C39860025006AC
:100255000203389850CAF582E9294B4A7005AB82EA
:1002650002032775F0007C1A7880C3EF9BEE9AEDA8
:1002750099400DC3EF9BFFEE9AFEED99FDE842F024
:10028500DC23ACF0D0E0FFD0E0FED0E0FDAB822077
:10029500E7101BEB60BAEC2CFCEF33FFEE33FEED01
:1002A50033FD020313E803F830E705C0F075F000ED
:1002B500EF2FFFEE33FEED33FD40B830E7C280AAE5
:1002C500EDD2E7CD33EC3392D524814006E4FFFE31
:1002D500FDFC22FCE4CFCECDCC24E0501174FF8090
:1002E500EDC3CC13CCCD13CDCE13CECF13CF04702D
:0702F500F030D5DE020670B7
:101693009064F51206EDE4FFFE7D807C3F9064F5D7
:1016A300E0F8A3E0F9A3E0FAA3E0FB1203607006FD
:1016B3009064F50217ED9064F5E0FCA3E0FDA3E070
:1016C300FEA3E0FF120346FBA3E0FCA3E0FDA3E0BF
:1016D300FEA3E0FF120346FFB40108E4FFFE7D8092
:1016E3007C3F22EF64046029EB64046024EBB401C3
:1016F30030E4FFFEFDFC9064F9E0F8A3E0F9A3E019
:10170300FAA3E0FB12036060084006E4FFFEFDFC61
:10171300229064F91206F9FFFFFFFF9064F90217A4
:10172300EDE49064FDF0A3F0FFFEFDFC9064F5E0B2
:10173300F8A3E0F9A3E0FAA3E0FB120360505F9083
:1017430064F9E0FCA3E0FDA3E0FEA3E0FF1202C501
:101753009064FDEEF0A3EFF0FDCCEECCEC1203EFC2
:10176300C8ECC8C9EDC9CAEECACBEFCB9064F9E0A7
:10177300FCA3E0FDA3E0FEA3E0FF12002AE4FBFAD2
:10178300F9F8120360708A9064F5E0FCA3E0FDA30E
:10179300E0FEA3E0FF1203D99064F51206ED906416
:1017A300F5E0FCA3E0FDA3E0FEA3E0FF12182D90FB
:1017B30064F9E0F8A3E0F9A3E0FAA3E0FB12011F48
:1017C3001221979064F91206ED9064FEE030E01761
:1017D3009064F9E0FCA3E0FDA3E0FEA3E0FF1203A5
:1017E300D99064F91206ED9064F9E0FCA3E0FDA33F
:0617F300E0FEA3E0FF226E
:1002FC00E9D2E7C933E833F892D5EDD2E7CD33EC48
:07030C0033FC5002B2D522C0
:10031300EC30E7100FBF000C0EBE00080DBD00044B
:100323000BEB6014A2D5EB13FCED92E7FD2274FFF7
:10033300FCFDFEFF22E480F8A2D574FF13FC7D8050
:03034300E480EF64
:10034600ED33EC33601004700FED547F70057402CA
:0A03560092E0227404220422E42243
:1003600074F8CC6480CCC86480C8F58204604FC344
:10037000EB9FF5F0EA9E42F0E99D42F0E89C45F0E3
:10038000603C501DE5825FFFE582D313CB5BCBF46D
:100390002B5582FB50280ABA002409B90020088096
:1003A0001DE5825BFBE582D313CF5FCFF4C3132F30
:1003B0005582FF50090EBE00050DBD00010CC3EBB8
:1003C0009FF5F0EA9E42F0E99D42F0E89C45F0601E
:0903D00007CC4820E701B3EC2240
:1003D900ED33EC33600A047003BD8004ECB2E7FC32
:0103E90022F1
:1003EA0075F020800E75F010800575F0087D007E8E
:1003FA00007F003392D530D503120670EC334010DB
:10040A00EF33FFEE33FEED33FDEC33FCD5F0ED2296
:0E041A00E5F0247EA2D513CC92E7CDCEFF22D2
:10215F0033DA929E35B16011377FE5FE39218489DC
:10216F003AAEC3FF3C1D955B3D6358473E75FDF08E
:10217F003F3172183F800000C2D502033B0203318A
:10218F00BD80FA50F3020338ED33EC330460F17B7A
:10219F003B7AAA79B8783F12011FED33EC3392D511
:1021AF00247B5011A2D570DB500BED4480240450DA
:1021BF0004A2D580CEEFFBEEFAEDF9ECF81202C5D2
:1021CF00EFF582F404FC1203F412002EC08290216A
:1021DF005F7409120437ED33CC33D0F092D525F06C
:0A21EF00A2D57001C313CC13FD222A
:1017F9003E9248DA3ECCCCCD3F2AAAAB400000004D
:101809003F8000003F9837F03FB504F33FD744FCD1
:101819003E3172173EB172173F0515913EDE5BD915
:10182900D20A8002C20AEDD2E7F8CD33EC33047054
:101839000BBD800592D502033B02033140FBD31453
:1018490060F2F5F07C3FEE7A00C39496C8948B4021
:10185900230AC89469C8941A401A0AC89468C89493
:101869001F40110AC8945AC89425400805F07A0007
:10187900CDC2E7CDC0F09064FF1206EDEA2323C084
:10188900E02409F582E43418F5831206DD12002EEE
:10189900ECC0E0EDC0E0EEC0E0EFC0E01206C190A0
:1018A90064FF1206D112002AD0E0FBD0E0FAD0E0A2
:1018B900F9D0E0B2E7F81202289064FF1206ED9021
:1018C90017F974031204289064FF1206D112011F3C
:1018D900D0E0600F2415F582E43418F5831206DD93
:1018E90012002E9064FF1206EDD0E0C3947FFDE450
:1018F9009400FC1203EF7B187A727931783F120158
:101909001F9064FF1206D112002E300A0B7BD97A80
:091919005B79DE783E12011F2209
:10042800C0E0EFFBEEFAEDF9ECF812011FD0E0F5B1
:10043800F0EFFBEEFAEDF9ECF81206C1A3A3A3A3C3
:10044800E8C0E0E9C0E0EAC0E0EBC0E0C0F01201BB
:100458001F1206DDA3A3A3A312002ED0F0D0E0FB49
:0D046800D0E0FAD0E0F9D0E0F8D5F0D422D1
:10220500021922E493A3F8E493A34003F68001F2B4
:1022150008DFF48029E493A3F85407240CC8C333DA
:10222500C4540F4420C8834004F456800146F6DFA9
:10223500E4800B01020408102040809007FAE47E38
:10224500019360BCA3FF543F30E509541FFEE4939E
:10225500A360010ECF54C025E060A840B8E493A365
:10226500FAE493A3F8E493A3C8C582C8CAC583CA90
:10227500F0A3C8C582C8CAC583CADFE9DEE780BE48
:010D8B000067
:10047500BB010689828A83E0225002E722BBFE0285
:09048500E32289828A83E49322B8
:10048E00BB010CE58229F582E5833AF583E0225023
:10049E0006E92582F8E622BBFE06E92582F8E2226D
:0D04AE00E58229F582E5833AF583E4932287
:1004BB00BB010FF8E58229F582E5833AF583E02845
:1004CB00F0225009C58229F8E58226F622BBFE09E7
:1004DB00C58229F8E22582F222F8EA2583F583E921
:0304EB0093282231
:1004EE00BB010689828A83F0225002F722BBFE01ED
:0204FE00F322E7
:10050000F8BB010DE58229F582E5833AF583E8F031
:10051000225006E92582C8F622BBFE05E92582C8DD
:02052000F222C5
:10052200C5F0F8A3E028F0C5F0F8E5821582700264
:060532001583E038F02201
:0D053800EF2BFFEE3AFEED39FDEC38FC2212
:0E054500C3EF9BFFEE9AFEED99FDEC98FC22B1
:10055300E88FF0A4CC8BF0A42CFCE98EF0A42CFC47
:100563008AF0EDA42CFCEA8EF0A4CDA8F08BF0A4C5
:100573002DCC3825F0FDE98FF0A42CCD35F0FCEB24
:100583008EF0A4FEA9F0EB8FF0A4CFC5F02ECD39E9
:0F059300FEE43CFCEAA42DCE35F0FDE43CFC2256
:1005A20075F008758200EF2FFFEE33FECD33CDCC10
:1005B20033CCC58233C5829BED9AEC99E582984093
:1005C2000CF582EE9BFEED9AFDEC99FC0FD5F0D670
:1005D200E4CEFBE4CDFAE4CCF9A88222B800C1B99A
:1005E2000059BA002DEC8BF084CFCECDFCE5F0CBD8
:1005F200F97818EF2FFFEE33FEED33FDEC33FCEB11
:1006020033FB10D703994004EB99FB0FD8E5E4F9CB
:10061200FA227818EF2FFFEE33FEED33FDEC33FCB8
:10062200C933C910D7059BE99A4007EC9BFCE99AAC
:10063200F90FD8E0E4C9FAE4CCFB2275F010EF2FF1
:10064200FFEE33FEED33FDCC33CCC833C810D707F1
:100652009BEC9AE899400AED9BFDEC9AFCE899F82C
:0E0662000FD5F0DAE4CDFBE4CCFAE4C8F922BF
:0E067000C3E49FFFE49EFEE49DFDE49CFC229B
:10067E00EB9FF5F0EA9E42F0E99D42F0E89C45F0D2
:01068E002249
:10068F00E8600FECC313FCED13FDEE13FEEF13FF49
:03069F00D8F1226D
:1006A200E8600FEFC333FFEE33FEED33FDEC33FCB6
:0306B200D8F1225A
:0C06B500E0FCA3E0FDA3E0FEA3E0FF22B8
:1006C100E493FC740193FD740293FE740393FF227F
:0C06D100E0F8A3E0F9A3E0FAA3E0FB22AC
:1006DD00E493F8740193F9740293FA740393FB2273
:0C06ED00ECF0A3EDF0A3EEF0A3EFF02280
:1006F900A8828583F0D083D08212071012071012C6
:100709000710120710E473E493A3C583C5F0C583EA
:10071900C8C582C8F0A3C583C5F0C583C8C582C84A
:0107290022AD
:09072A00E0FBA3E0FAA3E0F922D0
:10073300F8E0FBA3A3E0F925F0F0E582158270024F
:070743001583E0FA38F022F3
:09074A00EBF0A3EAF0A3E9F022B0
:10075300BB010DE58229F582E5833AF58302072A79
:100763005007E92582F80207DCBBFE07E92582F87A
:100773000207E5E58229F582E5833AF5830207EE70
:10078300D083D082F8E4937012740193700DA3A305
:1007930093F8740193F5828883E473740293686019
:0607A300EFA3A3A380DF19
:0607A9008A838982E473DB
:1007AF00EC8EF0A4CCC5F0CCCDF8EFA4CEC5F02DD7
:1007BF00FDE43CFCE8A42EC8C5F03DFDE43CFCEF95
:0D07CF00A4FFE5F028FEE43DFDE43CFC2223
:0907DC00E6FB08E6FA08E6F92242
:0907E500E2FB08E2FA08E2F92245
:0C07EE00E493FB740193FA740293F92267
:00000001FF
