:03000000021E02DB
:0C1E0200787FE4F6D8FD758121021E49AE
:0C000300000000000000000000000000F1
:0B24C900EF1FAC0670011E4C70F622E5
:10242100AB07AA06EB1BAE0270011A4E60097FAA28
:082431007E051224C980ED2292
:10193000907120E04480F07F057E001224C9E4FF0E
:10194000FE12242175A75575AC589071327450F071
:101950009071307403F0907136742FF07F18EF247B
:1019600066FDE434718D82F583E4F00FEFB433EE5D
:10197000904011E4935407FF90711CE054F84FF02D
:10198000904017E493547FFF90711DE054804FF016
:10199000904010E493FF5401C43333335480FE90DD
:1019A0007123E0547F4EF0EFC313543F4440FFA334
:1019B000E054804FF0904012E493FF540FFE90717A
:1019C00046E054F04EF0EFC4540FFF90714FE054D6
:1019D000F04FF0904013E493543FFF907140E05477
:1019E000C04FF0904014E493907126F0904015E4BD
:0E19F00093907128F0904016E49390712AF0C5
:0119FE0022C6
:070F6E0044610C428C0000FD
:102137007417F0A37470F02290612BE0FEA3E0FF08
:1021470022C390608DE0947090608CE0941722C356
:1021570090608FE0947090608EE094172290608D6D
:10216700E09F90608CE09E2290608FE09F90608E51
:03217700E09E22C5
:101C2F001221484003021CB6122156507AE4FFFEDF
:101C3F007D807CBF90610C1206D112002EE4FBFA5E
:101C4F0079A87842120228E4FBFA798078BF120053
:101C5F002E9061101206ED90610C1206B5E4FBFA9E
:101C6F00F9783F12002E90610C1206ED9061101260
:101C7F0006B59061021206ED7F007E007DA07C40CC
:101C8F00121299E4FBFA7970784212011F1202C501
:101C9F0090608CEEF0A3EFF090608CE0FFA3E090EB
:101CAF00608ECFF0A3EFF01221485005122156405D
:0E1CBF000C90608C12213790608E122137221B
:1015280075D9DD12193075D95590715EE054FEF009
:1015380075D9BB122301122406121B851221F81239
:1015480023C612226B12243990612B122137906026
:101558008A122137906086122137906088122137CD
:10156800C294E490608CF0A3F090608EF0A3F0D267
:101578000612213FC3122164400812213F12216F35
:10158800504B12244B121640300321C203C3906102
:1015980019E094C3906118E09408401012213F129A
:1015A8002164400812213F12216F5021300805C2E2
:1015B80008121C2F90608CE0FEA3E0FF1224D49048
:1015C800608EE0FEA3E0FF1224DD02157990608CA6
:1015D800E0FFA3E0906081CFF0A3EFF090608EE091
:1015E800FFA3E0906083CFF0A3EFF0C20612244B74
:1015F8001216401219FF12217A12232EC2943004B7
:101608000C7B017A6079AA121106120AAD90607BF0
:10161800E0FEA3E0FF1220A6906081EEF0A3EFF0B9
:1016280090607DE0FEA3E0FF1220A6906083EEF0BC
:08163800A3EFF012238180B53D
:100F75004260861770426088177042608A17704217
:100F8500607B1770426081177042607D1770426008
:100F95008317704260430000426079000042607729
:100FA50010004160850060326045000000000000CF
:100FB500000000000000000000000000000000002C
:100FC500000000000000000000000000000000001C
:100FD50000000000000000000000000042607F00EB
:100FE5000060406000FFFF000000000000000000FE
:100FF50000000000000000000000000000000000EC
:1010050000000000000000000000000000000000DB
:1010150000000000000000000000000000000000CB
:101025000000000000416040004160410041604215
:0310350000C107F0
:101F1500EF25E0FFEE33FE74452FF58274603EF544
:101F250083227FC37E05E4FDFC9060FE1206D1D3BB
:101F350002067EECF0A3EDF0906102E475F001027B
:101F45000522D3906089E094B8906088E0940B22D4
:101F5500906102E0FEA3E0FFC322906040E025E02F
:101F65002400F582E43460F58322E4906102F0A355
:101F7500F02233FE74002FF58274603EF5832290C3
:101F85006103E025E0FF906102E022AC06ECF21867
:061F9500EFF27817E222D2
:101B85007812E24401F278567407F278277417F256
:101B950018746FF27833E4F218F27819E24401F21E
:101BA5007811E24401F27817E24401F27812E24436
:101BB50001F27814E24401F27818E24401F278D394
:101BC500E254CFF2E24410F2E254FCF2E24401F2B4
:101BD50090718AE4F090718C740AF07812E24402F4
:101BE500F278577407F278297417F218746FF2783F
:101BF50037E4F218F27819E24402F27811E244026D
:101C0500F27817E24402F27812E24402F27814E222
:101C15004402F27818E24402F278D3E254F3F2E295
:0A1C25004404F290718B7409F02260
:0924D4007833121F904401F2223A
:0924DD007837121F904402F2222C
:1007FA009060FE1206F900000000906000E0F470BC
:06080A0003A3E0F4703FBF
:10081000121F70121F559420EE940050159061180D
:10082000E0FCA3E0FDEF25E0FFEE121F77121F387A
:1008300080E1121F6F121F559419EE9400505990C9
:0F0840006118E0FCA3E0FD121F15121F3880E6BF
:10084F00121F5FE0FFA3E0906102CFF0A3EFF090E3
:10085F006118E0FEA3E0FF906102EE8FF012052217
:10086F00906102E0C313FEA3E013FF906102EEF06C
:10087F00A3EFF0121F5FEEF0A3EFF0906040E004E3
:09088F00F0E0C394204002E4F003
:10089800121F6F9060FE1206D1121F84121F77E09C
:1008A800FEA3E0FFE4FCFD1205389060FE1206EDA1
:1008B800121F3D906102E07004A3E0642070D490A0
:1008C80060FE1206B5780512068F9060FE1206EDDE
:1008D8009060FE1206B5AD07AC06906080E025E09A
:1008E800FF90607FE033FE74452FF58274603EF51B
:1008F80083ECF0A3EDF090607F121F40C3906080FE
:0F090800E0941990607FE094004004E4F0A3F0C5
:10091700121F6F906079F0A3F09060777410F0A3C6
:10092700E4F0121F559419EE940040030209B61221
:100937001F15E0FCA3E0FD906079E0FAA3E0FBD38C
:10094700ED9BEC9A400F121F1CE0FFA3E09060792B
:10095700CFF0A3EFF0121F84121F1AE0FCA3E0FDF3
:10096700906077E0FAA3E0FBC3ED9BEC9A500F127F
:100977001F1CE0FFA3E0906077CFF0A3EFF090603B
:1009870077121F5890607AE09FFF906079E09EFE93
:10099700D3EF9450EE94004008906085741EF08069
:0F09A70008906085E0600214F0121F3D020929DC
:1009B600E47F8B7E06FDFC9060FE1206D1C3120614
:1009C6007E500C3007567F8B7E06121F2B404DE45F
:1009D600906041F0A3F0D207906085E0FFB41E1A44
:1009E60014F0121F47400774FFF5F0120522C312D8
:1009F6001F484003020AAC020A67EF6003020AAC12
:100A0600200203020AACC202C3906089E09470908F
:100A16006088E094174003020AAC803C121F27400E
:100A260048E47F6D7E06121F2C4008906041E0640A
:100A3600047036300370C203906041E0C3940450E2
:100A460003E004F0E4906042F0C207121F47400240
:100A56008043C3121F485006E475F001803C906045
:100A660088740BF0A374B8F022121F27400690601A
:100A760042E0603230032FC2039060427401F0E41A
:100A8600906041F0C207D3906089E0940890608836
:100A9600E09407400874FF75F0FE02052290608816
:060AA6007407F0A304F048
:010AAC002227
:0324F500C294226C
:0C24A5007818E230E0037F01227F002263
:0C24B1007818E230E1037F01227F002256
:0D248B007818E24401F290718C740AF0227E
:0E000F007818E254FEF290718CE4F0D2962242
:0D2498007818E24402F290718B7409F02272
:0E247D007818E254FDF290718BE4F0D29522B3
:1020A60090612BE0FCA3E0FD1207AFE47B707A178A
:1020B600F9F81205DED3906087E09F906086E09E77
:1020C6005005E0FEA3E0FFD3906089E09F90608812
:1020D600E09E5005E0FEA3E0FFD390608BE09F906A
:0B20E600608AE09E5005E0FEA3E0FFD2
:0120F10022CC
:1010380041611A004261180000C10141611B004171
:101048006114004161150041611600C1004161173A
:011058000097
:1021BA00907123E054F8F0E0441EF0907122740705
:1021CA00F0227FEA7E0B9060FEFDFC1206D1C3026C
:1021DA00067E1205459061031206ED906103020620
:0E21EA00B5E0FF906102E09F906101E09E224F
:1023010078F2E24403F278E3E244C0F278F0E25476
:10231100FDF208E254FDF208E2440CF278D0E254F6
:0D232100F7F208E254F7F208E244C0F2229D
:101FFA00906114E06F6055EFF0786AE24478F27508
:10200A0091FFEF24FE6012146021146026240370ED
:10201A002E1221BA7599188026907123E054D8F0AF
:10202A00E0441D1221C475991780141221BA7599BA
:10203A0019800C907123E054D81221C075990B783D
:0C204A0069E24448F27FD57E021224C9EE
:012056002267
:10235B00E4FFFE7869E24401F2786BE230E1FAAF18
:10236B0093EF75F010A4FFAEF0E594C4540FFDEF9E
:05237B004DFF7402F2A9
:01238000223A
:10175200E4906100F0A3F0A3F09061031206F90097
:10176200000000E4906107F0A3F074FF906109F0BB
:10177200A3F0E4906100F07869E24401F2786BE250
:1017820030E1FAAF93EF75F010A4FFE594C4540F63
:10179200FDEF4DFF906101E5F0F0A3EFF07402F26E
:1017A200906100E0C39402404A906107E0FEA3D337
:1017B2001221EB400CE0FFA3E0906107CFF0A3EF12
:1017C200F0906109E0FEA3C31221EB500CE0FFA3ED
:1017D200E0906109CFF0A3EFF09061031206D1907F
:1017E2006101E0FEA3E0FFE4FCFD12053890610315
:1017F2001206ED906100E004F0E064146003021749
:10180200791221E5C006C007906107E0FEA3E0FB64
:10181200AA06E4F9F8D007D0061221DCC006C007F8
:10182200906109E0FEA3E0FBAA06E4F8D007D00627
:101832001221DC780412068F906101EEF0A3EFF022
:08184200906101E0FEA3E0FF4C
:01184A00227B
:1022D3009061021206F90000000012235BE4FCFD8A
:1022E3009061021206EDE47F0CFEFDFC9061021288
:0E22F30006D1120553E47B0AFAF9F80205DE63
:1019FF009060FE1206F90000000090611AE0640288
:051A0F007003021AC281
:101A1400906115E004F0E0C394645003021AC2E438
:011A2400F0D1
:101A25007F01121FFA1222D39060FE1206ED90611B
:041A35001AE070281B
:101A39001221CC5008906116E004F08005E4906111
:101A490016F0906116E0C3940AE44007F090611A19
:081A590004F02290611AF02252
:081A610090611AE06401705964
:101A690020000FD2009061231206F9000000001235
:0F1A790024BDE47F307E759061231221D3403A63
:101A8800E41221CC5008906117E004F08005E4903E
:101A98006117F0906117E0C3940A4018E4F0906170
:101AA8001A7402F012246D9061231206F9000000E6
:0A1AB80000C2002290611A7401F0D0
:011AC2002201
:10232E0090611AE070030207FA90611AE0B4010B93
:10233E00906086740BF0A374B8F02290611AE0B42A
:0D234E00020A9060867405F0A374DCF02292
:10244B007F02121FFA121752906118EEF0A3EFF0F1
:01245B00225E
:10217A00E4FE7F04121FFA12235B90611BE0701ABF
:10218A00D3EF9420EE940E5004D2018002C2019043
:10219A00608A7417F0A37470F022C3EF94C8EE94A7
:0F21AA000E4002C20190608A7405F0A374DCF04D
:0121B9002203
:1010590041612200C10842611C000042611E00007A
:051069004261200000BF
:0724EE00E475F00102052274
:1024060043A820D2AF75D10178957401F21874767D
:0B241600F2789174A0F21874FDF2221D
:03001E00021AC300
:101AC300C0E0C0F0C083C082C0D075D000C0007831
:101AD30091E220E703021B78E24480F2906122E066
:101AE30004F0E0C3940D4004E4F0D2089060ABE04E
:081AF300C394FF5003E004F06E
:101AFB00300425906091E0601F90611C1224EEC3AE
:101B0B0090611DE0946090611CE094EA4011E4F058
:0F1B1B00A3F0906091F0800790611CE4F0A3F0BC
:101B2A003001279061201224EE90611EE4F0A3F0A8
:101B3A00C3906121E09432906120E09400402FE448
:101B4A00F0A3F090611B04F0802490611E1224EE31
:101B5A00906120E4F0A3F0C390611FE0944090618B
:0E1B6A001EE0941F4008E4F0A3F090611BF011
:0D1B7800D000D0D0D082D083D0F0D0E032A9
:07106E0044612300000000B3
:0824E600789CE2541FF2E2228F
:1021F800E5B154CF42B1789CE254E3F2E24414F2E0
:10220800E254FCF2E24401F208E24480F2E24420A3
:10221800F278A1743BF2187460F2789EE4F208F246
:0C2228001224E644A0F253A8BFD2AF225B
:0C24BD001224E644C0F243A840D2AF2233
:10246D001224E644A0F2789EE4F208F253A8BF22AB
:0300210002205763
:10205700C0E0C0F0C083C082C0D075D000C000C04F
:1020670004C005C006C007789DE230E71DE2448042
:10207700F29061231206B5EF2401FFE43EFEE43D32
:10208700FDE43CFC9061231206EDD007D006D00595
:0F209700D004D000D0D0D082D083D0F0D0E032AF
:09107500C102C1034260FC00004D
:101F9B009060F01206B5EF4401FFEC9060F0020682
:101FAB00ED9060EFE4F09060F42290608CE0FEA383
:101FBB00E0FF2290608EE0FEA3E0FF22E475F001CB
:101FCB000205229060F57401F09060F4E4F0229029
:101FDB006082E09F906081E09E22906084E09F9001
:0F1FEB006083E09E229060EFE004F0E064182233
:1023C60043A901D2AF75D104907105E4F090710470
:1023D6007424F090710174A0F090710074FDF022E5
:03002400020D23A7
:100D2300C0E0C0F0C083C082C0D075D000C000C096
:100D330001C002C003C004C005C006C00790710112
:100D4300E020E703020F53E04480F09060F8121FA5
:100D5300C79060FA121FC79060FC121FC7C3906050
:100D6300FBE0940D9060FAE094004006E4F0A3F0F9
:100D7300D203C39060F9E0940D9060F8E0940040D2
:070D830006E4F0A3F0D20228
:100D8A0020833D9060F6E004F0E0C3941E50030215
:100D9A000E929060EFE064176003020E929060F783
:100DAA00E09406400AE094145005121F9B800B90B1
:100DBA0060F7E0C394014002E0FF121FCE020E92D8
:100DCA009060F6E0D394005003020E78E0D3943298
:100DDA0040129060F01206F900000000121FAC04E5
:100DEA00F0020E659060F4E060249060F6E0C3942F
:100DFA0002401BE094075016A3E0C39406400FE09C
:100E0A009414500A121F9B121FF0604F8031906099
:100E1A00F4E060399060F6E0C394074030E094143F
:100E2A00502BA3E0C394014024E09406501F906025
:100E3A00F01206B5EF54FE121FA4121FF0601CA395
:100E4A001206B578011206A2121FA6800E9060F053
:100E5A001206F900000000121FACF09060F6E4F0F0
:100E6A00A3F09060EFE0B41819121FCE80149060BE
:100E7A00F4E0700E9060F01206F900000000121FF4
:100E8A00ACF09060F7E004F09060F5E0601B9060D1
:100E9A00EFE4F09060F5F0A3F0A3F09060F0120692
:090EAA00B59060E51206EDD205D9
:100EB300C39060FDE094149060FCE0940050030242
:100EC3000F53E4F0A3F0300603020F53121FB5D300
:100ED300121FDA400990608CE475F0018010121F34
:100EE300B5C3121FDA500A90608C74FFF5F0120537
:100EF30022121FBED3121FE5400990608EE475F0E5
:100F0300018010121FBEC3121FE5500A90608E7439
:100F1300FFF5F0120522121FB51224D4121FBE12C0
:100F230024DDD390608DE0940090608CE0940050B9
:100F33000512000F800312248BD390608FE094007E
:100F430090608EE09400500512247D800312249853
:100F5300D007D006D005D004D003D002D001D000F2
:0B0F6300D0D0D082D083D0F0D0E0329C
:07107E0042612B1770C1094C
:1023E600E0FEA3E0FF1207AF7B0AE4FAF9F8120554
:1023F600DEE4229060FFE094DD9060FEE09404222B
:10164000E49060FEF0A3F07F03121FFA121752908D
:1016500060FEEEF0A3EFF0300903021749D390606B
:10166000FFE094EA9060FEE09401500AE490612B60
:10167000F0A3F002173CD31223F95029E0FEA3E0B7
:10168000FFEF2416FFEE34FEFEE434FFFDE434FFEA
:10169000FCE47BE07A2EF9F81205531223EE7BDD91
:1016A0007A04021723D39060FFE094EE9060FEE08E
:1016B0009408500E7C5D7DC01223E67BEE7A080212
:1016C0001723D39060FFE094129060FEE0940B50DB
:1016D00017E0FEA3E0FF7C177D701207AF7B0212BC
:1016E00023F07B127A0B803BD39060FFE094BC9098
:1016F00060FEE0940C500D7C8C7DA01223E67BBC38
:101700007A0C801FD39060FFE094919060FEE0948B
:101710000F501FE0FEA3E0FF7CBB7D801223EB7B1C
:10172000917A0FF9F81205DE90612BEEF0A3EFF03D
:10173000800A90612B7417F0A37470F090612BE015
:101740007002A3E0700BD20922C31223F94002C237
:01175000098F
:011751002275
:10108500416091004460A6FFFFFFFF4660E9000054
:1010950000000000C104C1054460E50000000054E3
:1010A50060920821222324042526272802292A2B99
:1010B5002C012D2E2F30602860BD14010203041869
:1010C5000506070810090A0B0C150D0E0F10051162
:1010D500121314081516171806191A1B1C091D1EBC
:1010E5001F205360AA3200000000000F120000000C
:0C10F500040001FF1CCDFF0041609000D2
:10184B00740175F02C90607B120522D390607CE0C4
:10185B00947090607BE0941722740175F02C90606B
:10186B007D120522D390607EE0947090607DE094B1
:10187B00172274FE75F0D4120522C390607CE0949D
:10188B002C90607BE094012274FF75F06A120522A4
:10189B00C390607CE0949690607BE094002274FE91
:1018AB0075F0D4120522C390607EE0942C90607D7D
:1018BB00E094012274FF75F06A120522C390607EDA
:1018CB00E0949690607DE094002212068F9060E980
:1018DB001206D1C302067E9060E50206B57417F0BE
:1018EB00A37470F0229060EEE064C522EE75F005F3
:1018FB00A42492F582E4346022EE75F005A424BD95
:10190B00F582E43460227B017A6079E97406F0E4B5
:10191B00FF2212068F9060A60206ED9060E9120678
:05192B00B59060A6224A
:101CCD00200503021D65C2051218E2EC4D4E4F7042
:041CDD0003021D627F
:101CE1001218E2EF9060FEF0906091E0602B90603E
:101CF100FEE0540FFBBB010F1218E2780412191D0C
:101D01009060FEEBF0804A9060FEE0641470421235
:101D110018E2780812191D80381218F0702D9060A1
:101D2100EDE0B401131218E278041218D57009908D
:101D310060FEE0540FF080199060EDE0B4020A12E9
:101D410018E278081218D5600880009060FE74FFD0
:101D5100F09060E51206F9000000009060FEE0FFDF
:011D6100225F
:061D62007FFF227FFF223B
:0220F200A9073C
:1020F400E4FFFEEB640170141218F7F583E0B501F8
:10210400051218F780180EEEB404ED22EB64027089
:1021140021FE121904F583E0B50112121904F583A6
:10212400E5822DF582E43583F583E0FF220EEEB4DB
:0221340008E0C1
:012136002286
:081E8E009060FFEFF0A3EDF0FE
:101E9600E4A3F0A3F0906091E060351219261218C1
:101EA600DB70181218F070139060EDE0B401028038
:101EB600339060EDE064027050803C9060FFE0FF7C
:101EC600B4140280379060FFE0FF6401703B801914
:101ED6001219261218DB70311218F0702C9060ED72
:101EE600E0B4010C9060FFE0FFA3E0FD7B018011F0
:101EF6009060EDE0B402129060FFE0FFA3E0FD7B8E
:0E1F0600021220F2906101EFF0906101E0FF05
:011F140022AA
:100AAD00E49060FEF09060BBE0F47003020D22E074
:100ABD00FFA3E0FD121E8E9060FEEFF09060BB7400
:050ACD00FFF0E4A3F0BE
:100AD200906091E06401705A9060FEE0FF90609037
:100AE200E06F7044EF64036005EF642F705E906006
:100AF200EE74C5F09060A61206B59060E91206ED9C
:100B02009060FEE09060EDB403057402F08003741F
:100B120001F0E4FF12245C906103121911122234D5
:100B22009060917402F080249060FEE0906090F0FA
:100B3200801A906091E0B402139060FEE0FF6404BA
:0C0B42006004EFB43006E4906091F022F3
:100B4E001218F06003020D22906091E0600F906029
:100B5E00A61206B51218D87004906091F09060FE3F
:100B6E00E01207830BBE010BBE040BCD050BCD08A7
:100B7E000BD0090BDB0B0BEA0D0BF50F0C04110C54
:100B8E0004140C0A150C0A180C10190C1F1B0C352A
:100B9E001D0C4D1F0C65210C78230C99250C9928E2
:100BAE000CAE290CD52B0CFC2D0CFC3000000D22AC
:100BBE001224A5EF70061224B1EF6003020D080295
:100BCE000D1612184B5003020D22020D1FE475F084
:100BDE00961218505003020D22020D1F1218645067
:100BEE0003020D22020D1FE475F0961218695003D0
:100BFE00020D22020D1F90607B020CA690607D02FA
:100C0E000CA6121885401912187D4003020D228081
:100C1E002312189B400A1218934003020D228014CF
:100C2E00E490607B020D121218B1400C1218A9400C
:100C3E0003020D22E4020D12E490607D020D1212E9
:100C4E0018C7400C1218BF4003020D22E4020D1209
:100C5E00E490607D020D1212184B40031218E81238
:100C6E0018645003020D22020D1F90607BE475F094
:100C7E009612185340031218E890607DE475F096B2
:100C8E0012186C5003020D22020D1F90607B740B24
:100C9E00F0A374B8F090607D740BF0A374B8F022DA
:100CAE00121885400812187D500AE48004E4906002
:100CBE007BF0A3F01218B140081218A95056E48028
:100CCE0043E490607D803D12189B400812189350AB
:100CDE000AE48004E490607BF0A3F01218C7400889
:100CEE001218BF502FE4801CE490607D80161224F1
:100CFE00A5EF70061224B1EF600EE490607BF0A3B6
:100D0E00F090607DF0A3F02290607B1218E8906066
:040D1E007D1218E842
:010D220022AE
:10226B0078C0E24408F278C2E2543FF278D0E244FC
:10227B0002F278D2E254F3F2209104D2048002C22B
:10228B000430040F90610212191112229F90609179
:04229B007401F022B8
:0411010041612A001E
:1023A5009060FEF090612702072A90000612048EC5
:1023B500FE90000802048E90000912050090000CA2
:0123C50022F5
:10110600E49060FEF07FFFA374FFF0906127120762
:101116004A90000112048EFE120475FDEEC39D5026
:10112600030212981223A9900001E4120500900010
:101136000E1207531207A9EFF4600890612A742370
:10114600F0800990612AE06003E014F01223A99070
:10115600000312048E6F601590000512048E600D58
:10116600900004E41205009000030212949000051A
:1011760012048EFE90000412048EC39E500B12239E
:10118600A990000474010204BB1223A99000021264
:10119600048E6F6048EFF4701C1223AFC39E400AA2
:1011A60074041223A590000280611223A990000AFC
:1011B600740102128B1223A990000874011223BF36
:1011C60012048E6F906127600C12072A7401122395
:1011D600BCEF02128B12072A900009803DEFF470D3
:1011E600411223A990000912048ED39400500302E1
:1011F600128E90000B12048EFE90000A12048ED3FB
:101206009E401174011223A590000C12048E90606A
:10121600FFF080541223A990000A74011204BB0245
:10122600128E1223A91223B6C394FF500890000809
:1012360074011204BB1223AFB506089060FE740257
:10124600F080201223A99000071223B26E70399005
:1012560060FE74031223A890000612048E90000804
:101266001205009060FFEFF01223A9E41223BC746C
:10127600FF1205009060FFE09000111205009060DB
:10128600FEE09000121205001223A9900002EF1250
:02129600050051
:011298002233
:10245C0075AF3F8FAF75AEB975A402E5A530E1FB42
:01246C00224D
:1022340090610012074A75AF3F8FAF906103E0C30E
:1022440094014022E5A530E0FB906100E475F001C3
:10225400120733120475F5A675AEB975A401906121
:0722640003E014F080D52215
:10229F009060FF12074A906102E06027AE070FEED1
:1022AF002400FDE4343F8D82F583E493FE9060FFBC
:1022BF00E475F001120733EE1204EE906102E014A0
:0422CF00F080D322A6
:1024390078D2E254CFF2E24410F2907188E4F0C20B
:022449009222DD
:10238100C390608DE0945890608CE094025012C329
:1023910090608FE0945890608EE094025003D29246
:0423A10022C29222A0
:10002700020331E86480F8E933E83360110460F0D3
:10003700ED33EC337009E8FCE9FDEAFEEBFF22043F
:1000470060DED3EB9FEA9EE99DE8C2E78CF0C2F73A
:1000570095F0400CE8CCF8E9CDF9EACEFAEBCFFB06
:100067001202FC85D0F05804700320D5B3E8047061
:10007700075002B2D502033B92D5EC0460F7E4CCFB
:10008700C0E0C398F8603B94186008400DD0E0FBCF
:10009700020313E4FBFAC9FC8028E830E406E4C94C
:1000A700FBE4CAFCE830E305E4C9CACBFCE8540723
:1000B7006010F8C3E913F9EA13FAEB13FBEC13FC2E
:1000C700D8F130F52FC3E49CFCEF9BFFEE9AFEEDD1
:1000D70099FDD0E0FBEF4E4D4C701222DB0302037B
:1000E70038EC2CFCEF33FFEE33FEED33FDED30E75C
:1000F700EB020313EF2BFFEE3AFEED39FDD0E0FBE9
:1001070050130BBB000302033BED13FDEE13FEEF91
:0801170013FFEC13FC020313BB
:10011F00EC4D6011E8497017ED33EC3304600DE4DA
:10012F00FCFFFEFD22E933E8330470F802033112BD
:10013F0002FC58046009E4CC2481500628500902BF
:10014F00033B284003020338C0E0EB4A7044B980F8
:10015F0006D0E0FB020327EF4E701CBD8008EBFFBB
:10016F00EAFEE9FD80EBE98DF0A4FEE5F00202085E
:10017F00E9CDF9EAFEEBFFEF89F0A4FCE5F0CE89BB
:10018F00F0A42EFFE435F0CD89F0A42DFEE435F078
:10019F008067EF4E7005BD80D780C3EF8BF0A4ACA6
:1001AF00F0EE8BF0A42CFCE435F0F8EF8AF0A42CE1
:1001BF00E5F038FCE433CB8DF0A42CFCE5F03BF8F4
:1001CF00EE8AF0A42CFCE5F038F8E433CF89F0A4E4
:1001DF002CFCE5F038CF3400CE89F0A42FFFE5F0EA
:1001EF003EFEE433C98DF0A42EFEE5F039CD8AF042
:1001FF00A42FFFE5F03EFEE43DFD33D0E0FB5007BA
:10020F000BBB000F02033BEC2CFCEF33FFEE33FE76
:06021F00ED33FD020313A4
:1002250002033BEC5D046005E859047003020331E9
:100235001202FC580460F6EC4860F2EC7004FDFE16
:10024500FF22C860DB2481C85009C39860025006AC
:100255000203389850CAF582E9294B4A7005AB82EA
:1002650002032775F0007C1A7880C3EF9BEE9AEDA8
:1002750099400DC3EF9BFFEE9AFEED99FDE842F024
:10028500DC23ACF0D0E0FFD0E0FED0E0FDAB822077
:10029500E7101BEB60BAEC2CFCEF33FFEE33FEED01
:1002A50033FD020313E803F830E705C0F075F000ED
:1002B500EF2FFFEE33FEED33FD40B830E7C280AAE5
:1002C500EDD2E7CD33EC3392D524814006E4FFFE31
:1002D500FDFC22FCE4CFCECDCC24E0501174FF8090
:1002E500EDC3CC13CCCD13CDCE13CECF13CF04702D
:0702F500F030D5DE020670B7
:101299009060FE1206EDE4FFFE7D807C3F9060FECB
:1012A900E0F8A3E0F9A3E0FAA3E0FB1203607006FB
:1012B9009060FE0213F39060FEE0FCA3E0FDA3E062
:1012C900FEA3E0FF120346FBA3E0FCA3E0FDA3E0BD
:1012D900FEA3E0FF120346FFB40108E4FFFE7D8090
:1012E9007C3F22EF64046029EB64046024EBB401C1
:1012F90030E4FFFEFDFC906102E0F8A3E0F9A3E011
:10130900FAA3E0FB12036060084006E4FFFEFDFC5F
:10131900229061021206F9FFFFFFFF90610202139A
:10132900F3E4906106F0A3F0FFFEFDFC9060FEE09F
:10133900F8A3E0F9A3E0FAA3E0FB120360505F9081
:101349006102E0FCA3E0FDA3E0FEA3E0FF1202C5F9
:10135900906106EEF0A3EFF0FDCCEECCEC1203EFBA
:10136900C8ECC8C9EDC9CAEECACBEFCB906102E09F
:10137900FCA3E0FDA3E0FEA3E0FF12002AE4FBFAD0
:10138900F9F8120360708A9060FEE0FCA3E0FDA307
:10139900E0FEA3E0FF1203D99060FE1206ED906013
:1013A900FEE0FCA3E0FDA3E0FEA3E0FF12143390EE
:1013B9006102E0F8A3E0F9A3E0FAA3E0FB12011F40
:1013C900121DA09061021206ED906107E030E0174E
:1013D900906102E0FCA3E0FDA3E0FEA3E0FF12039D
:1013E900D99061021206ED906102E0FCA3E0FDA331
:0613F900E0FEA3E0FF226C
:1002FC00E9D2E7C933E833F892D5EDD2E7CD33EC48
:07030C0033FC5002B2D522C0
:10031300EC30E7100FBF000C0EBE00080DBD00044B
:100323000BEB6014A2D5EB13FCED92E7FD2274FFF7
:10033300FCFDFEFF22E480F8A2D574FF13FC7D8050
:03034300E480EF64
:10034600ED33EC33601004700FED547F70057402CA
:0A03560092E0227404220422E42243
:1003600074F8CC6480CCC86480C8F58204604FC344
:10037000EB9FF5F0EA9E42F0E99D42F0E89C45F0E3
:10038000603C501DE5825FFFE582D313CB5BCBF46D
:100390002B5582FB50280ABA002409B90020088096
:1003A0001DE5825BFBE582D313CF5FCFF4C3132F30
:1003B0005582FF50090EBE00050DBD00010CC3EBB8
:1003C0009FF5F0EA9E42F0E99D42F0E89C45F0601E
:0903D00007CC4820E701B3EC2240
:1003D900ED33EC33600A047003BD8004ECB2E7FC32
:0103E90022F1
:1003EA0075F020800E75F010800575F0087D007E8E
:1003FA00007F003392D530D503120670EC334010DB
:10040A00EF33FFEE33FEED33FDEC33FCD5F0ED2296
:0E041A00E5F0247EA2D513CC92E7CDCEFF22D2
:101D680033DA929E35B16011377FE5FE39218489D7
:101D78003AAEC3FF3C1D955B3D6358473E75FDF089
:101D88003F3172183F800000C2D502033B02033185
:101D9800BD80FA50F3020338ED33EC330460F17B75
:101DA8003B7AAA79B8783F12011FED33EC3392D50C
:101DB800247B5011A2D570DB500BED4480240450D5
:101DC80004A2D580CEEFFBEEFAEDF9ECF81202C5CD
:101DD800EFF582F404FC1203F412002EC082901D69
:101DE800687409120437ED33CC33D0F092D525F05E
:0A1DF800A2D57001C313CC13FD2225
:1013FF003E9248DA3ECCCCCD3F2AAAAB400000004B
:10140F003F8000003F9837F03FB504F33FD744FCCF
:10141F003E3172173EB172173F0515913EDE5BD913
:10142F00D20A8002C20AEDD2E7F8CD33EC33047052
:10143F000BBD800592D502033B02033140FBD31451
:10144F0060F2F5F07C3FEE7A00C39496C8948B401F
:10145F00230AC89469C8941A401A0AC89468C89491
:10146F001F40110AC8945AC89425400805F07A0005
:10147F00CDC2E7CDC0F09061081206EDEA2323C07C
:10148F00E0240FF582E43414F5831206DD12002EEA
:10149F00ECC0E0EDC0E0EEC0E0EFC0E01206C1909E
:1014AF0061081206D112002AD0E0FBD0E0FAD0E09A
:1014BF00F9D0E0B2E7F81202289061081206ED9019
:1014CF0013FF74031204289061081206D112011F32
:1014DF00D0E0600F241BF582E43414F5831206DD8F
:1014EF0012002E9061081206EDD0E0C3947FFDE448
:1014FF009400FC1203EF7B187A727931783F120156
:10150F001F9061081206D112002E300A0B7BD97A78
:09151F005B79DE783E12011F2207
:10042800C0E0EFFBEEFAEDF9ECF812011FD0E0F5B1
:10043800F0EFFBEEFAEDF9ECF81206C1A3A3A3A3C3
:10044800E8C0E0E9C0E0EAC0E0EBC0E0C0F01201BB
:100458001F1206DDA3A3A3A312002ED0F0D0E0FB49
:0D046800D0E0FAD0E0F9D0E0F8D5F0D422D1
:101E0E00021528E493A3F8E493A34003F68001F2AD
:101E1E0008DFF48029E493A3F85407240CC8C333D5
:101E2E00C4540F4420C8834004F456800146F6DFA4
:101E3E00E4800B0102040810204080900F6EE47EB7
:101E4E00019360BCA3FF543F30E509541FFEE49399
:101E5E00A360010ECF54C025E060A840B8E493A360
:101E6E00FAE493A3F8E493A3C8C582C8CAC583CA8B
:101E7E00F0A3C8C582C8CAC583CADFE9DEE780BE43
:0111050000E9
:10047500BB010689828A83E0225002E722BBFE0285
:09048500E32289828A83E49322B8
:10048E00BB010CE58229F582E5833AF583E0225023
:10049E0006E92582F8E622BBFE06E92582F8E2226D
:0D04AE00E58229F582E5833AF583E4932287
:1004BB00BB010FF8E58229F582E5833AF583E02845
:1004CB00F0225009C58229F8E58226F622BBFE09E7
:1004DB00C58229F8E22582F222F8EA2583F583E921
:0304EB0093282231
:1004EE00BB010689828A83F0225002F722BBFE01ED
:0204FE00F322E7
:10050000F8BB010DE58229F582E5833AF583E8F031
:10051000225006E92582C8F622BBFE05E92582C8DD
:02052000F222C5
:10052200C5F0F8A3E028F0C5F0F8E5821582700264
:060532001583E038F02201
:0D053800EF2BFFEE3AFEED39FDEC38FC2212
:0E054500C3EF9BFFEE9AFEED99FDEC98FC22B1
:10055300E88FF0A4CC8BF0A42CFCE98EF0A42CFC47
:100563008AF0EDA42CFCEA8EF0A4CDA8F08BF0A4C5
:100573002DCC3825F0FDE98FF0A42CCD35F0FCEB24
:100583008EF0A4FEA9F0EB8FF0A4CFC5F02ECD39E9
:0F059300FEE43CFCEAA42DCE35F0FDE43CFC2256
:1005A20075F008758200EF2FFFEE33FECD33CDCC10
:1005B20033CCC58233C5829BED9AEC99E582984093
:1005C2000CF582EE9BFEED9AFDEC99FC0FD5F0D670
:1005D200E4CEFBE4CDFAE4CCF9A88222B800C1B99A
:1005E2000059BA002DEC8BF084CFCECDFCE5F0CBD8
:1005F200F97818EF2FFFEE33FEED33FDEC33FCEB11
:1006020033FB10D703994004EB99FB0FD8E5E4F9CB
:10061200FA227818EF2FFFEE33FEED33FDEC33FCB8
:10062200C933C910D7059BE99A4007EC9BFCE99AAC
:10063200F90FD8E0E4C9FAE4CCFB2275F010EF2FF1
:10064200FFEE33FEED33FDCC33CCC833C810D707F1
:100652009BEC9AE899400AED9BFDEC9AFCE899F82C
:0E0662000FD5F0DAE4CDFBE4CCFAE4C8F922BF
:0E067000C3E49FFFE49EFEE49DFDE49CFC229B
:10067E00EB9FF5F0EA9E42F0E99D42F0E89C45F0D2
:01068E002249
:10068F00E8600FECC313FCED13FDEE13FEEF13FF49
:03069F00D8F1226D
:1006A200E8600FEFC333FFEE33FEED33FDEC33FCB6
:0306B200D8F1225A
:0C06B500E0FCA3E0FDA3E0FEA3E0FF22B8
:1006C100E493FC740193FD740293FE740393FF227F
:0C06D100E0F8A3E0F9A3E0FAA3E0FB22AC
:1006DD00E493F8740193F9740293FA740393FB2273
:0C06ED00ECF0A3EDF0A3EEF0A3EFF02280
:1006F900A8828583F0D083D08212071012071012C6
:100709000710120710E473E493A3C583C5F0C583EA
:10071900C8C582C8F0A3C583C5F0C583C8C582C84A
:0107290022AD
:09072A00E0FBA3E0FAA3E0F922D0
:10073300F8E0FBA3A3E0F925F0F0E582158270024F
:070743001583E0FA38F022F3
:09074A00EBF0A3EAF0A3E9F022B0
:10075300BB010DE58229F582E5833AF58302072A79
:100763005007E92582F80207DCBBFE07E92582F87A
:100773000207E5E58229F582E5833AF5830207EE70
:10078300D083D082F8E4937012740193700DA3A305
:1007930093F8740193F5828883E473740293686019
:0607A300EFA3A3A380DF19
:0607A9008A838982E473DB
:1007AF00EC8EF0A4CCC5F0CCCDF8EFA4CEC5F02DD7
:1007BF00FDE43CFCE8A42EC8C5F03DFDE43CFCEF95
:0D07CF00A4FFE5F028FEE43DFDE43CFC2223
:0907DC00E6FB08E6FA08E6F92242
:0907E500E2FB08E2FA08E2F92245
:0C07EE00E493FB740193FA740293F92267
:00000001FF
