:03000000021D9945
:0C1D9900787FE4F6D8FD758121021DE082
:0C000300000000000000000000000000F1
:0B247900EF1FAC0670011E4C70F62235
:10002A00AB07AA06EB1BAE0270011A4E60097FAA43
:08003A007E0512247980ED22FD
:10181100907120E04480F07F057E00122479E4FF7E
:10182100FE12002A75A75575AC589071327450F0AC
:101831009071307403F0907136742FF07F18EF249B
:1018410066FDE434718D82F583E4F00FEFB433EE7D
:10185100904011E4935407FF90711CE054F84FF04D
:10186100904017E493547FFF90711DE054804FF036
:10187100904010E493FF5401C43333335480FE90FD
:101881007123E0547F4EF0EFC313543F4440FFA354
:10189100E054804FF0904012E493FF540FFE90719A
:1018A10046E054F04EF0EFC4540FFF90714FE054F6
:1018B100F04FF0904013E493543FFF907140E05497
:1018C100C04FF0904014E493907126F0904015E4DD
:0E18D10093907128F0904016E49390712AF0E5
:0118DF0022E6
:07128D00446305428C0000E0
:1022DD007417F0A37470F022C39062D6E0947090DE
:1022ED0062D5E0941722C39062D8E094709062D7C3
:0422FD00E094172230
:101BC6001222E54003021C4D1222F3507AE4FFFE76
:101BD6007D807CBF9063051206E112004CE4FBFA9F
:101BE60079A87842120246E4FBFA798078BF12009F
:101BF6004C9063091206FD9063051206C5E4FBFAD4
:101C0600F9783F12004C9063051206FD90630912A5
:101C160006C59062FB1206FD7F007E007DA07C401B
:101C2600121127E4FBFA7970784212013D1202E3A1
:101C36009062D5EEF0A3EFF09062D5E0FFA3E090BE
:101C460062D7CFF0A3EFF01222E550051222F3403F
:0E1C56000C9062D51222DD9062D71222DD22A0
:1015120075D9DD12181175D95590715EE054FEF03F
:1015220075D9BB12228712200D1223C7121B1C125F
:10153200217A1223871223461221ED1223FA906395
:101542001C1222DD9062D31222DD9062CF1222DDC4
:101552009062D11222DDC294E49062D5F0A3F090A1
:1015620062D7F0A3F0D20890631CE0FEA3E0FFC3B1
:101572009062D6E09F9062D5E09E401490631CE09A
:10158200FEA3E0FF9062D8E09F9062D7E09E5028D1
:10159200121622300302C203300905C209121BC609
:1015A2009062D5E0FEA3E0FF1224A39062D7E0FE92
:1015B200A3E0FF1224AC80AF9062D5E0FFA3E090DD
:1015C20062CBCFF0A3EFF09062D7E0FFA3E090628E
:1015D200CDCFF0A3EFF0C2081216221219A21221E7
:1015E2003C122255C29430040C7B017A6279821239
:1015F2000F94120AD39062C7E0FEA3E0FF1220AB61
:101602009062CBEEF0A3EFF09062C9E0FEA3E0FFA0
:101612001220AB9062CDEEF0A3EFF012230180B85E
:101294004262CF17704262D117704262D317704214
:1012A40062C717704262CB17704262C917704262FC
:0312B400CD1770E3
:0B248400AC06ECF218EFF27817E22231
:101B1C007812E24401F278567407F278277417F2BF
:101B2C0018746FF27833E4F218F27819E24401F287
:101B3C007811E24401F27817E24401F27812E2449F
:101B4C0001F27814E24401F27818E24401F278D3FD
:101B5C00E254CFF2E24410F2E254FCF2E24401F21D
:101B6C0090718AE4F090718C740AF07812E244025D
:101B7C00F278577407F278297417F218746FF278A8
:101B8C0037E4F218F27819E24402F27811E24402D6
:101B9C00F27817E24402F27812E24402F27814E28C
:101BAC004402F27818E24402F278D3E254F3F2E2FF
:0A1BBC004404F290718B7409F022CA
:0924A30078331224844401F22272
:0924AC0078371224844402F22264
:0C2455007818E230E0037F01227F0022B3
:0C2461007818E230E1037F01227F0022A6
:0D243B007818E24401F290718C740AF022CE
:0E000F007818E254FEF290718CE4F0D2962242
:0D2448007818E24402F290718B7409F022C2
:0E242D007818E254FDF290718BE4F0D2952203
:1020AB0090631CE0FCA3E0FD1207BFE47B707A1782
:1020BB00F9F81205EED39062D0E09F9062CFE09ECC
:1020CB005005E0FEA3E0FFD39062D2E09F9062D177
:1020DB00E09E5005E0FEA3E0FFD39062D4E09F901A
:0B20EB0062D3E09E5005E0FEA3E0FF82
:0120F60022C7
:1012B7004162E200C1014162E3004162DF00416235
:1012C700D9004162DA004162DB00C1004162DC0003
:1022B400AF97EF75F010A4FFE598C4540FFDEF4DF0
:1022C400FF227FEA7E0B9062F7FDFC1206E1C30257
:0922D400068EE5F0F0A3EFF02204
:1022870078F2E24403F278E3E244C0F278F0E254F1
:10229700FDF208E254FDF208E2440CF278D0E25471
:0D22A700F7F208E254F7F208E244C0F22218
:10200D0043AA04D2AF907123E05498F0E0441EF03F
:10201D009071227407F0439E70439940439F704323
:10202D009A4043A170439D40786AE2447FF27591D6
:10203D00FF7592FF75FCFF12248F122499E4FF1295
:0F204D0023677869E24478F27F017E0002002A5F
:0A248F005399DF5399E04399172297
:0A249900539ADF539AE0759A192256
:102367009062D9E06F6018EFF0539DDF539DE0EF67
:0F23770024FC600824037007439D1822439D0B2C
:012386002234
:1023E2009062DDE0FEA3E0FF7C007D0C1207BFE4FB
:0823F2007B0AFAF9F80205EE7E
:1019A2009062F7120709000000009062E2E0640210
:0519B2007003021A6041
:1019B7009062DAE004F0E0C394645003021A60E432
:0119C700F02F
:0F19C8001223E29062F71206FD9062E2E07028AF
:1019D7001222C650089062DBE004F08005E49062B2
:1019E700DBF09062DBE0C3940AE44007F09062E228
:0819F70004F0229062E2F022EC
:0819FF009062E2E064017059FE
:101A070020000FD200906314120709000000001293
:0F1A1700246DE47F307E759063141222CD403A27
:101A2600E41222C650089062DCE004F08005E490DF
:101A360062DCF09062DCE0C3940A4018E4F0906245
:101A4600E27402F012241D906314120709000000CC
:0A1A560000C200229062E27401F069
:011A60002263
:102255009062E2E07008300728C20702080A90621F
:10226500E2E0B4010B9062CF740BF0A374B8F022D6
:102275009062E2E0B4020A9062CF7405F0A374DCC8
:02228500F02245
:10213C009062E6E0FEA3E0FF9062E3E0701AD3EF5A
:10214C009420EE940E5004D2018002C2019062D30E
:10215C007417F0A37470F022C3EF94C8EE940E4081
:0D216C0002C2019062D37405F0A374DCF090
:012179002243
:03004200021E2576
:101E2500C0E0C0F0C083C082C0D075D000C000C083
:101E350005C007786BE230E117E24402F2AF93EF99
:101E450075F010A4FFE5941222BE9062E01222D62E
:101E5500786BE230E217E24404F2AF95EF75F010CB
:101E6500A4FFE5961222BE9062E41222D6786BE2B8
:101E750030E323E24408F29062DFE0B40208122264
:101E8500B49062DD800D9062DFE0B404091222B4E3
:101E95009062E61222D6D007D005D000D0D0D082ED
:071EA500D083D0F0D0E03241
:1012D70041631300C10942630D000042630F000020
:0512E70042631100004C
:0724BD00E475F00102054087
:1023C70043A820D2AF75D10178957401F2187476BD
:0B23D700F2789174A0F21874FDF2225D
:03001E000218E0E5
:1018E000C0E0C0F0C083C082C0D075D000C0007816
:1018F00091E220E703021995E24480F2906313E03D
:1019000004F0E0C3940D4004E4F0D209906283E057
:08191000C394FF5003E004F052
:10191800300425906269E0601F90630D1224BDC3F6
:1019280090630EE0946090630DE094EA4011E4F057
:0F193800A3F0906269F0800790630DE4F0A3F0D4
:101947003001279063111224BD90630FE4F0A3F0D8
:10195700C3906312E09432906311E09400402FE447
:10196700F0A3F09062E304F0802490630F1224BD8B
:10197700906311E4F0A3F0C3906310E09440906388
:0E1987000FE0941F4008E4F0A3F09062E3F03C
:0D199500D000D0D0D082D083D0F0D0E0328E
:0712EC004463140000000040
:0824B500789CE2541FF2E222C0
:10217A00E5B154CF42B1789CE254E3F2E24414F25E
:10218A00E254FCF2E24401F208E24480F2E2442022
:10219A00F278A1743BF2187460F2789EE4F208F2C5
:0C21AA001224B544A0F253A8BFD2AF220B
:0C246D001224B544C0F243A840D2AF22B4
:10241D001224B544A0F2789EE4F208F253A8BF222C
:0300210002205C5E
:10205C00C0E0C0F0C083C082C0D075D000C000C04A
:10206C0004C005C006C007789DE230E71DE244803D
:10207C00F29063141206C5EF2401FFE43EFEE43D2A
:10208C00FDE43CFC9063141206FDD007D006D0058D
:0F209C00D004D000D0D0D082D083D0F0D0E032AA
:0912F300C102C1034262F50000D2
:101FAE009062E91206C5EF4401FFEC9062E9020669
:101FBE00FD9062E8E4F09062ED229062D5E0FEA31F
:101FCE00E0FF229062D7E0FEA3E0FF22E475F0016D
:101FDE000205409062EE7401F09062EDE4F0229002
:101FEE0062CCE09F9062CBE09E229062CEE09F900A
:0F1FFE0062CDE09E229062E8E004F0E0641822D9
:1023870043A901D2AF75D104907105E4F0907104AF
:102397007424F090710174A0F090710074FDF02224
:03002400020D4981
:100D4900C0E0C0F0C083C082C0D075D000C000C070
:100D590001C002C003C004C005C006C007907101EC
:100D6900E020E703020F79E04480F09062F1121F5E
:100D7900DA9062F3121FDA9062F5121FDAC39062F9
:100D8900F4E0940D9062F3E094004006E4F0A3F0DF
:100D9900D203C39062F2E0940D9062F1E0940040B6
:070DA90006E4F0A3F0D20202
:100DB00020833D9062EFE004F0E0C3941E500302F4
:100DC0000EB89062E8E064176003020EB89062F01B
:100DD000E09406400AE094145005121FAE800B9078
:100DE00062F0E0C394014002E0FF121FE1020EB87E
:100DF0009062EFE0D394005003020E9EE0D3943251
:100E000040129062E912070900000000121FBF049F
:100E1000F0020E8B9062EDE060249062EFE0C394EC
:100E200002401BE094075016A3E0C39406400FE075
:100E30009414500A121FAE122003604F803190624A
:100E4000EDE060399062EFE0C394074030E0941425
:100E5000502BA3E0C394014024E09406501F9062FD
:100E6000E91206C5EF54FE121FB7122003601CA33F
:100E70001206C578011206B2121FB9800E9062E9FF
:100E800012070900000000121FBFF09062EFE4F0AB
:100E9000A3F09062E8E0B41819121FE18014906288
:100EA000EDE0700E9062E912070900000000121FC9
:100EB000BFF09062F0E004F09062EEE0601B9062A0
:100EC000E8E4F09062EEF0A3F0A3F09062E912067D
:090ED000C59062BD1206FDD205B9
:100ED900C39062F6E094149062F5E0940050030226
:100EE9000F79E4F0A3F0300803020F79121FC8D379
:100EF900121FED40099062D5E475F0018010121FB0
:100F0900C8C3121FED500A9062D574FFF5F012059F
:100F190040121FD1D3121FF840099062D7E475F02F
:100F2900018010121FD1C3121FF8500A9062D774A2
:100F3900FFF5F0120540121FC81224A3121FD11287
:100F490024ACD39062D6E094009062D5E09400502E
:100F59000512000F800312243BD39062D8E094005D
:100F69009062D7E09400500512242D800312244882
:100F7900D007D006D005D004D003D002D001D000CC
:0B0F8900D0D0D082D083D0F0D0E03276
:0712FC0042631C1770C10AD8
:1023A700E0FEA3E0FF1207BF7B0AE4FAF9F8120583
:1023B700EEE4229062F8E094DD9062F7E094042264
:101622009062E4E0FFA3E09062F7CFF0A3EFF03026
:101632000A03021723D39062F8E094EA9062F7E07B
:101642009401500AE490631CF0A3F0021716D3121F
:1016520023BA5029E0FEA3E0FFEF2416FFEE34FE8A
:10166200FEE434FFFDE434FFFCE47BE07A2EF9F87B
:101672001205631223AF7BDD7A040216FDD390625A
:10168200F8E094EE9062F7E09408500E7C5D7DC025
:101692001223A77BEE7A080216FDD39062F8E0943B
:1016A200129062F7E0940B5017E0FEA3E0FF7C1764
:1016B2007D701207BF7B021223B17B127A0B803B33
:1016C200D39062F8E094BC9062F7E0940C500D7CE9
:1016D2008C7DA01223A77BBC7A0C801FD39062F86A
:1016E200E094919062F7E0940F501FE0FEA3E0FFB8
:1016F2007CBB7D801223AC7B917A0FF9F81205EE48
:1017020090631CEEF0A3EFF0800A90631C7417F054
:10171200A37470F090631CE07002A3E0700BD20A15
:0917220022C31223BA4002C20ADC
:01172B00229B
:101303004162690044627EFFFFFFFF4662C1000045
:1013130000000000C104C1054462BD000000005488
:10132300626A0821222324042526272802292A2B3E
:101333002C012D2E2F30602862951401020304180E
:101343000506070810090A0B0C150D0E0F100511E1
:10135300121314081516171806191A1B1C091D1E3B
:101363001F205362823200000000000F12000000B1
:0C137300040001FF1C64FF0041626800E0
:10172C00740175F02C9062C7120540D39062C8E02A
:10173C0094709062C7E0941722740175F02C90623B
:10174C00C9120540D39062CAE094709062C9E094CB
:10175C00172274FE75F0D4120540C39062C8E09451
:10176C002C9062C7E094012274FF75F06A12054058
:10177C00C39062C8E094969062C7E094002274FE15
:10178C0075F0D4120540C39062CAE0942C9062C9E3
:10179C00E094012274FF75F06A120540C39062CA8E
:1017AC00E094969062C9E094002212069F9062C168
:1017BC001206E1C302068E9062BD0206C57417F0D4
:1017CC00A37470F0229062C6E064C522EE75F00539
:1017DC00A4246AF582E4346222EE75F005A4249503
:1017EC00F582E43462227B017A6279C17406F0E4FA
:1017FC00FF2212069F90627E0206FD9062C11206C5
:05180C00C590627E2280
:101C6400200503021CFCC2051217C3EC4D4E4F7035
:041C740003021CF952
:101C78001217C3EF9062F7F0906269E0602B9062F0
:101C8800F7E0540FFBBB010F1217C378041217FEBD
:101C98009062F7EBF0804A9062F7E06414704212A9
:101CA80017C378081217FE80381217D1702D90626A
:101CB800C5E0B401131217C378041217B67009905F
:101CC80062F7E0540FF080199062C5E0B4020A127E
:101CD80017C378081217B6600880009062F774FF7F
:101CE800F09062BD120709000000009062F7E0FF63
:011CF80022C9
:061CF9007FFF227FFF22A5
:0220F700A90737
:1020F900E4FFFEEB640170141217D8F583E0B50113
:10210900051217D880180EEEB404ED22EB640270A4
:1021190021FE1217E5F583E0B501121217E5F583E3
:10212900E5822DF582E43583F583E0FF220EEEB4D6
:0221390008E0BC
:01213B002281
:081EAC009062F8EFF0A3EDF0E5
:101EB400E4A3F0A3F0906269E060351218071217EA
:101EC400BC70181217D170139062C5E0B40102807F
:101ED400339062C5E064027050803C9062F8E0FF89
:101EE400B4140280379062F8E0FF6401703B8019FB
:101EF4001218071217BC70311217D1702C9062C5DA
:101F0400E0B4010C9062F8E0FFA3E0FD7B018011D6
:101F14009062C5E0B402129062F8E0FFA3E0FD7B9A
:0E1F2400021220F79062FAEFF09062FAE0FFEE
:011F3200228C
:100AD300E49062F7F0906293E0F47003020D48E053
:100AE300FFA3E0FD121EAC9062F7EFF090629374E7
:050AF300FFF0E4A3F098
:100AF800906269E06401705A9062F7E0FF90626862
:100B0800E06F7044EF64036005EF642F705E9062DD
:100B1800C674C5F090627E1206C59062C11206FDC9
:100B28009062F7E09062C5B403057402F080037424
:100B380001F0E4FF12240C9062FC1217F21221B6A5
:100B48009062697402F080249062F7E0906268F025
:100B5800801A906269E0B402139062F7E0FF6404BF
:0C0B68006004EFB43006E4906269F022F3
:100B74001217D16003020D48906269E0600F906221
:100B84007E1206C51217B97004906269F09062F77C
:100B9400E01207930BE4010BE4040BF3050BF308D9
:100BA4000BF6090C010B0C100D0C1B0F0C2A110C6D
:100BB4002A140C30150C30180C36190C451B0C5B20
:100BC4001D0C731F0C8B210C9E230CBF250CBF28FE
:100BD4000CD4290CFB2B0D222D0D223000000D48C6
:100BE400122455EF7006122461EF6003020D2E02E9
:100BF4000D3C12172C5003020D48020D45E475F00C
:100C0400961217315003020D48020D451217455034
:100C140003020D48020D45E475F09612174A50037D
:100C2400020D48020D459062C7020CCC9062C902C5
:100C34000CCC121766401912175E4003020D48804F
:100C44002312177C400A1217744003020D488014C3
:100C5400E49062C7020D38121792400C12178A40B2
:100C640003020D48E4020D38E49062C9020D381203
:100C740017A8400C1217A04003020D48E4020D38D7
:100C8400E49062C9020D3812172C40031217C912DE
:100C940017455003020D48020D459062C7E475F0F4
:100CA4009612173440031217C99062C9E475F0967E
:100CB40012174D5003020D48020D459062C7740B84
:100CC400F0A374B8F09062C9740BF0A374B8F02266
:100CD400121766400812175E500AE48004E490621A
:100CE400C7F0A3F0121792400812178A5056E480F6
:100CF40043E49062C9803D12177C40081217745077
:100D04000AE48004E49062C7F0A3F01217A8400834
:100D14001217A0502FE4801CE49062C9801612249C
:100D240055EF7006122461EF600EE49062C7F0A3E1
:100D3400F09062C9F0A3F0229062C71217C99062C2
:040D4400C91217C9F0
:010D48002288
:1021ED0078C0E24408F278C2E2543FF278D0E2447B
:1021FD0002F278D2E254F3F2209104D2048002C2AA
:10220D000430040F9062FB1217F2122221906269C2
:04221D007401F02236
:04137F0041631B00AB
:102325009062F7F090631802073A9000061204AC29
:10233500FE9000080204AC90000912051E90000CE6
:012345002275
:100F9400E49062F7F07FFFA374FFF09063181207E8
:100FA4005A9000011204ACFE120493FDEEC39D504E
:100FB40003021126122329900001E412051E900059
:100FC4000E1207631207B9EFF4600890631B7423D1
:100FD400F0800990631BE06003E014F01223299071
:100FE40000031204AC6F60159000051204AC600D90
:100FF400900004E412051E900003021122900005E3
:101004001204ACFE9000041204ACC39E500B1223D5
:101014002990000474010204D912232990000212B9
:1010240004AC6F6048EFF4701C12232FC39E400A77
:101034007404122325900002806112232990000A6F
:101044007401021119122329900008740112233F1C
:101054001204AC6F906318600C12073A74011223E7
:101064003CEF02111912073A900009803DEFF47029
:10107400411223299000091204ACD39400500302B6
:10108400111C90000B1204ACFE90000A1204ACD3A5
:101094009E4011740112232590000C1204AC90623E
:1010A400F8F0805412232990000A74011204D90222
:1010B400111C122329122336C394FF5008900008F0
:1010C40074011204D912232FB506089062F7740232
:1010D400F080201223299000071223326E70399079
:1010E40062F774031223289000061204AC900008DF
:1010F40012051E9062F8EFF0122329E412233C74C7
:10110400FF12051E9062F8E090001112051E906215
:10111400F7E090001212051E122329900002EF122C
:02112400051EA6
:0111260022A6
:10240C0075AF3F8FAF75AEB975A402E5A530E1FB92
:01241C00229D
:1021B6009062F912075A75AF3F8FAF9062FCE0C389
:1021C60094014022E5A530E0FB9062F9E475F00148
:1021D600120743120493F5A675AEB975A401906271
:0721E600FCE014F080D5229B
:102221009062F812075A9062FBE06027AE070FEE4A
:102231002400FDE4343F8D82F583E493FE9062F83F
:10224100E475F001120743EE12050C9062FBE014F5
:04225100F080D32224
:1023FA0078D2E254CFF2E24410F2907188E4F0C24B
:02240A0092221C
:10230100C39062D6E094589062D5E094025012C313
:102311009062D8E094589062D7E094025003D29230
:0423210022C2922220
:1023460043A902D2AF75D10890710D7401F0907156
:102356000C745DF090710974A0F090710874FDF032
:012366002254
:03002700021A6159
:101A6100C0E0C0F0C083C082C0D075D000C000C04B
:101A710001C002C003C004C005C006C007907109BF
:101A8100E020E702807A907109E04480F07869E211
:101A910020E004E24401F27869E2C31320E004E2A9
:031AA1004402F20A
:101AA40090631EE004F0E0C3940A4051E4F0D207CE
:101AB4009062DFE06004E0B4040D7F0112236790BC
:101AC40062DF7401F080369062DFE0B4010B786964
:101AD400E24404F27402F080249062DFE0B4020D68
:101AE4007F041223679062DF7403F080109062DF3A
:0D1AF400E0B403097869E24404F27404F0E0
:101B0100D007D006D005D004D003D002D001D00038
:0B1B1100D0D0D082D083D0F0D0E032E2
:101383004260030000426265000042626310004154
:1013930062670060406005FFFF000000000000007E
:1013A300000000000000000000000000000000003A
:1013B300000000000000000000000000000000002A
:1013C300000000000000000000000000000000001A
:1013D3000000000000000041600000416001004186
:0513E300600200C106DC
:101F3300EF25E0FFEE33FE74472FF58274603EF524
:101F430083227FF87E04E4FDFC9062F71206E1D35E
:101F530002068EECF0A3EDF09062FDE475F0010251
:101F63000540D39062D2E094B89062D1E0940B2202
:101F73009062FDE0FEA3E0FFC322906000E025E055
:101F83002405F582E43460F58322E49062FDF0A336
:101F9300F02233FE74052FF58274603EF5832290A0
:0B1FA30062FEE025E0FF9062FDE022FE
:10080A009062F7120709000000009062E0E0FFA37F
:10081A00E09062FBCFF0A3EFF0906005E0F4700384
:05082A00A3E0F4703FA3
:10082F00121F8E121F739420EE940050159062FBCE
:10083F00E0FCA3E0FDEF25E0FFEE121F95121F561F
:10084F0080E1121F8D121F73940EEE940150599078
:0F085F0062FBE0FCA3E0FD121F33121F5680E680
:10086E00121F7DE0FFA3E09062FDCFF0A3EFF090AA
:10087E0062FBE0FEA3E0FF9062FDEE8FF0120540FA
:10088E009062FDE0C313FEA3E013FF9062FDEEF055
:10089E00A3EFF0121F7DEEF0A3EFF0906000E004E6
:0908AE00F0E0C394204002E4F0E4
:1008B700121F8D9062F71206E1121FA2121F95E018
:1008C700FEA3E0FFE4FCFD1205569062F71206FD59
:1008D700121F5B9062FDE07004A3E0642070D49067
:1008E70062F71206C5780512069F9062F71206FD99
:1008F7009062F71206C5AD07AC06906046E025E0AA
:10090700FF906045E033FE74472FF58274603EF533
:1009170083ECF0A3EDF0906045121F5EC390604634
:0F092700E0940E906045E094014004E4F0A3F0EA
:10093600121F8D906265F0A3F09062637410F0A3AD
:10094600E4F0121F73940EEE940140030209D912CB
:100956001F33E0FCA3E0FD906265E0FAA3E0FBD361
:10096600ED9BEC9A400F121F3AE0FFA3E090626500
:10097600CFF0A3EFF0121FA2121F38E0FCA3E0FD98
:10098600906263E0FAA3E0FBC3ED9BEC9A500F1272
:100996001F3AE0FFA3E0906263CFF0A3EFF090620E
:1009A60063E0FEA3E0FFC3906266E09FFF9062658E
:1009B600E09EFED3EF9445EE940040089062677483
:1009C6001EF08009906267E06003E014F0121F5B7E
:0309D600020948CB
:1009D900E47FA47E05FDFC9062F71206E1C31206CE
:1009E9008E500C3006597FA47E05121F494050E4F1
:1009F900906001F0A3F0D206906267E0B41E1BE09C
:100A090014F0121F65400774FFF5F0120540C31278
:100A19001F664003020AD2020A8D906267E06003F2
:100A2900020AD2200203020AD2C202C39062D2E0B1
:100A390094709062D1E094174003020AD2803C126C
:100A49001F454048E47F8A7E05121F4A400890608E
:100A590001E064047036300370C203906001E0C3A2
:100A690094045003E004F0E4906002F0C206121FFF
:100A79006540028043C3121F665006E475F0018089
:100A89003C9062D1740BF0A374B8F022121F454058
:100A990006906002E0603230032FC2039060027456
:100AA90001F0E4906001F0C206D39062D2E09408AC
:100AB9009062D1E09407400874FF75F0FE0205408A
:090AC9009062D17407F0A304F05F
:010AD2002201
:1000450002034FE86480F8E933E83360110460F097
:10005500ED33EC337009E8FCE9FDEAFEEBFF220421
:1000650060DED3EB9FEA9EE99DE8C2E78CF0C2F71C
:1000750095F0400CE8CCF8E9CDF9EACEFAEBCFFBE8
:1000850012031A85D0F05804700320D5B3E8047024
:10009500075002B2D502035992D5EC0460F7E4CCBF
:1000A500C0E0C398F8603B94186008400DD0E0FBB1
:1000B500020331E4FBFAC9FC8028E830E406E4C910
:1000C500FBE4CAFCE830E305E4C9CACBFCE8540705
:1000D5006010F8C3E913F9EA13FAEB13FBEC13FC10
:1000E500D8F130F52FC3E49CFCEF9BFFEE9AFEEDB3
:1000F50099FDD0E0FBEF4E4D4C701222DB0302035D
:1001050056EC2CFCEF33FFEE33FEED33FDED30E71F
:10011500EB020331EF2BFFEE3AFEED39FDD0E0FBAC
:1001250050130BBB0003020359ED13FDEE13FEEF55
:0801350013FFEC13FC0203317F
:10013D00EC4D6011E8497017ED33EC3304600DE4BC
:10014D00FCFFFEFD22E933E8330470F802034F1281
:10015D00031A58046009E4CC248150062850090282
:10016D000359284003020356C0E0EB4A7044B9809E
:10017D0006D0E0FB020345EF4E701CBD8008EBFF7F
:10018D00EAFEE9FD80EBE98DF0A4FEE5F002022622
:10019D00E9CDF9EAFEEBFFEF89F0A4FCE5F0CE899D
:1001AD00F0A42EFFE435F0CD89F0A42DFEE435F05A
:1001BD008067EF4E7005BD80D780C3EF8BF0A4AC88
:1001CD00F0EE8BF0A42CFCE435F0F8EF8AF0A42CC3
:1001DD00E5F038FCE433CB8DF0A42CFCE5F03BF8D6
:1001ED00EE8AF0A42CFCE5F038F8E433CF89F0A4C6
:1001FD002CFCE5F038CF3400CE89F0A42FFFE5F0CC
:10020D003EFEE433C98DF0A42EFEE5F039CD8AF023
:10021D00A42FFFE5F03EFEE43DFD33D0E0FB50079B
:10022D000BBB000F020359EC2CFCEF33FFEE33FE3A
:06023D00ED33FD02033168
:10024300020359EC5D046005E85904700302034F8F
:1002530012031A580460F6EC4860F2EC7004FDFED9
:10026300FF22C860DB2481C85009C398600250068E
:100273000203569850CAF582E9294B4A7005AB82AE
:1002830002034575F0007C1A7880C3EF9BEE9AED6C
:1002930099400DC3EF9BFFEE9AFEED99FDE842F006
:1002A300DC23ACF0D0E0FFD0E0FED0E0FDAB822059
:1002B300E7101BEB60BAEC2CFCEF33FFEE33FEEDE3
:1002C30033FD020331E803F830E705C0F075F000B1
:1002D300EF2FFFEE33FEED33FD40B830E7C280AAC7
:1002E300EDD2E7CD33EC3392D524814006E4FFFE13
:1002F300FDFC22FCE4CFCECDCC24E0501174FF8072
:10030300EDC3CC13CCCD13CDCE13CECF13CF04700E
:07031300F030D5DE02068088
:101127009062F71206FDE4FFFE7D807C3F9062F738
:10113700E0F8A3E0F9A3E0FAA3E0FB12037E700650
:101147009062F70212819062F7E0FCA3E0FDA3E052
:10115700FEA3E0FF120364FBA3E0FCA3E0FDA3E012
:10116700FEA3E0FF120364FFB40108E4FFFE7D80E5
:101177007C3F22EF64046029EB64046024EBB40134
:1011870030E4FFFEFDFC9062FBE0F8A3E0F9A3E08A
:10119700FAA3E0FB12037E60084006E4FFFEFDFCB5
:1011A700229062FB120709FFFFFFFF9062FB02120A
:1011B70081E49062FFF0A3F0FFFEFDFC9062F7E090
:1011C700F8A3E0F9A3E0FAA3E0FB12037E505F90D7
:1011D70062FBE0FCA3E0FDA3E0FEA3E0FF1202E355
:1011E7009062FFEEF0A3EFF0FDCCEECCEC12040D15
:1011F700C8ECC8C9EDC9CAEECACBEFCB9062FBE019
:10120700FCA3E0FDA3E0FEA3E0FF120048E4FBFA25
:10121700F9F812037E708A9062F7E0FCA3E0FDA361
:10122700E0FEA3E0FF1203F79062F71206FD90625B
:10123700F7E0FCA3E0FDA3E0FEA3E0FF12141D907E
:1012470062FBE0F8A3E0F9A3E0FAA3E0FB12013D9B
:10125700121D379062FB1206FD906300E030E01725
:101267009062FBE0FCA3E0FDA3E0FEA3E0FF120316
:10127700F79062FB1206FD9062FBE0FCA3E0FDA382
:06128700E0FEA3E0FF22DF
:10031A00E9D2E7C933E833F892D5EDD2E7CD33EC29
:07032A0033FC5002B2D522A2
:10033100EC30E7100FBF000C0EBE00080DBD00042D
:100341000BEB6014A2D5EB13FCED92E7FD2274FFD9
:10035100FCFDFEFF22E480F8A2D574FF13FC7D8032
:03036100E480EF46
:10036400ED33EC33601004700FED547F70057402AC
:0A03740092E0227404220422E42225
:10037E0074F8CC6480CCC86480C8F58204604FC326
:10038E00EB9FF5F0EA9E42F0E99D42F0E89C45F0C5
:10039E00603C501DE5825FFFE582D313CB5BCBF44F
:1003AE002B5582FB50280ABA002409B90020088078
:1003BE001DE5825BFBE582D313CF5FCFF4C3132F12
:1003CE005582FF50090EBE00050DBD00010CC3EB9A
:1003DE009FF5F0EA9E42F0E99D42F0E89C45F06000
:0903EE0007CC4820E701B3EC2222
:1003F700ED33EC33600A047003BD8004ECB2E7FC14
:0104070022D2
:1004080075F020800E75F010800575F0087D007E6F
:10041800007F003392D530D503120680EC334010AC
:10042800EF33FFEE33FEED33FDEC33FCD5F0ED2278
:0E043800E5F0247EA2D513CC92E7CDCEFF22B4
:101CFF0033DA929E35B16011377FE5FE3921848941
:101D0F003AAEC3FF3C1D955B3D6358473E75FDF0F2
:101D1F003F3172183F800000C2D502035902034FB2
:101D2F00BD80FA50F3020356ED33EC330460F17BC0
:101D3F003B7AAA79B8783F12013DED33EC3392D557
:101D4F00247B5011A2D570DB500BED44802404503E
:101D5F0004A2D580CEEFFBEEFAEDF9ECF81202E318
:101D6F00EFF582F404FC12041212004CC082901C96
:101D7F00FF7409120455ED33CC33D0F092D525F012
:0A1D8F00A2D57001C313CC13FD228E
:1013E9003E9248DA3ECCCCCD3F2AAAAB4000000061
:1013F9003F8000003F9837F03FB504F33FD744FCE6
:101409003E3172173EB172173F0515913EDE5BD929
:10141900D20B8002C20BEDD2E7F8CD33EC33047066
:101429000BBD800592D502035902034F40FBD3142B
:1014390060F2F5F07C3FEE7A00C39496C8948B4035
:10144900230AC89469C8941A401A0AC89468C894A7
:101459001F40110AC8945AC89425400805F07A001B
:10146900CDC2E7CDC0F09063011206FDEA2323C087
:10147900E024F9F582E43413F5831206ED12004CE9
:10148900ECC0E0EDC0E0EEC0E0EFC0E01206D190A4
:1014990063011206E1120048D0E0FBD0E0FAD0E087
:1014A900F9D0E0B2E7F81202469063011206FD9006
:1014B90013E974031204469063011206E112013D17
:1014C900D0E0600F2405F582E43414F5831206EDAB
:1014D90012004C9063011206FDD0E0C3947FFDE435
:1014E9009400FC12040D7B187A727931783F12014D
:1014F9003D9063011206E112004C300B0B7BD97A47
:091509005B79DE783E12013D22FF
:10044600C0E0EFFBEEFAEDF9ECF812013DD0E0F575
:10045600F0EFFBEEFAEDF9ECF81206D1A3A3A3A395
:10046600E8C0E0E9C0E0EAC0E0EBC0E0C0F012019D
:100476003D1206EDA3A3A3A312004CD0F0D0E0FBDF
:0D048600D0E0FAD0E0F9D0E0F8D5F0D422B3
:101DA500021512E493A3F8E493A34003F68001F22D
:101DB50008DFF48029E493A3F85407240CC8C3333F
:101DC500C4540F4420C8834004F456800146F6DF0E
:101DD500E4800B010204081020408090128DE47EFF
:101DE500019360BCA3FF543F30E509541FFEE49303
:101DF500A360010ECF54C025E060A840B8E493A3CA
:101E0500FAE493A3F8E493A3C8C582C8CAC583CAF4
:101E1500F0A3C8C582C8CAC583CADFE9DEE780BEAC
:0113E8000004
:10049300BB010689828A83E0225002E722BBFE0267
:0904A300E32289828A83E493229A
:1004AC00BB010CE58229F582E5833AF583E0225005
:1004BC0006E92582F8E622BBFE06E92582F8E2224F
:0D04CC00E58229F582E5833AF583E4932269
:1004D900BB010FF8E58229F582E5833AF583E02827
:1004E900F0225009C58229F8E58226F622BBFE09C9
:1004F900C58229F8E22582F222F8EA2583F583E903
:0305090093282212
:10050C00BB010689828A83F0225002F722BBFE01CE
:02051C00F322C8
:10051E00F8BB010DE58229F582E5833AF583E8F013
:10052E00225006E92582C8F622BBFE05E92582C8BF
:02053E00F222A7
:10054000C5F0F8A3E028F0C5F0F8E5821582700246
:060550001583E038F022E3
:0D055600EF2BFFEE3AFEED39FDEC38FC22F4
:10056300E88FF0A4CC8BF0A42CFCE98EF0A42CFC37
:100573008AF0EDA42CFCEA8EF0A4CDA8F08BF0A4B5
:100583002DCC3825F0FDE98FF0A42CCD35F0FCEB14
:100593008EF0A4FEA9F0EB8FF0A4CFC5F02ECD39D9
:0F05A300FEE43CFCEAA42DCE35F0FDE43CFC2246
:1005B20075F008758200EF2FFFEE33FECD33CDCC00
:1005C20033CCC58233C5829BED9AEC99E582984083
:1005D2000CF582EE9BFEED9AFDEC99FC0FD5F0D660
:1005E200E4CEFBE4CDFAE4CCF9A88222B800C1B98A
:1005F2000059BA002DEC8BF084CFCECDFCE5F0CBC8
:10060200F97818EF2FFFEE33FEED33FDEC33FCEB00
:1006120033FB10D703994004EB99FB0FD8E5E4F9BB
:10062200FA227818EF2FFFEE33FEED33FDEC33FCA8
:10063200C933C910D7059BE99A4007EC9BFCE99A9C
:10064200F90FD8E0E4C9FAE4CCFB2275F010EF2FE1
:10065200FFEE33FEED33FDCC33CCC833C810D707E1
:100662009BEC9AE899400AED9BFDEC9AFCE899F81C
:0E0672000FD5F0DAE4CDFBE4CCFAE4C8F922AF
:0E068000C3E49FFFE49EFEE49DFDE49CFC228B
:10068E00EB9FF5F0EA9E42F0E99D42F0E89C45F0C2
:01069E002239
:10069F00E8600FECC313FCED13FDEE13FEEF13FF39
:0306AF00D8F1225D
:1006B200E8600FEFC333FFEE33FEED33FDEC33FCA6
:0306C200D8F1224A
:0C06C500E0FCA3E0FDA3E0FEA3E0FF22A8
:1006D100E493FC740193FD740293FE740393FF226F
:0C06E100E0F8A3E0F9A3E0FAA3E0FB229C
:1006ED00E493F8740193F9740293FA740393FB2263
:0C06FD00ECF0A3EDF0A3EEF0A3EFF02270
:10070900A8828583F0D083D0821207201207201295
:100719000720120720E473E493A3C583C5F0C583BA
:10072900C8C582C8F0A3C583C5F0C583C8C582C83A
:01073900229D
:09073A00E0FBA3E0FAA3E0F922C0
:10074300F8E0FBA3A3E0F925F0F0E582158270023F
:070753001583E0FA38F022E3
:09075A00EBF0A3EAF0A3E9F022A0
:10076300BB010DE58229F582E5833AF58302073A59
:100773005007E92582F80207ECBBFE07E92582F85A
:100783000207F5E58229F582E5833AF5830207FE40
:10079300D083D082F8E4937012740193700DA3A3F5
:1007A30093F8740193F5828883E473740293686009
:0607B300EFA3A3A380DF09
:0607B9008A838982E473CB
:1007BF00EC8EF0A4CCC5F0CCCDF8EFA4CEC5F02DC7
:1007CF00FDE43CFCE8A42EC8C5F03DFDE43CFCEF85
:0D07DF00A4FFE5F028FEE43DFDE43CFC2213
:0907EC00E6FB08E6FA08E6F92232
:0907F500E2FB08E2FA08E2F92235
:0C07FE00E493FB740193FA740293F92257
:00000001FF
